{
  "contractName": "ManagingContract",
  "abi": [
    {
      "inputs": [
        {
          "internalType": "uint256",
          "name": "flags",
          "type": "uint256"
        },
        {
          "internalType": "uint256",
          "name": "flag",
          "type": "uint256"
        }
      ],
      "name": "getFlag",
      "outputs": [
        {
          "internalType": "bool",
          "name": "",
          "type": "bool"
        }
      ],
      "stateMutability": "pure",
      "type": "function"
    },
    {
      "inputs": [
        {
          "internalType": "contract DaoRegistry",
          "name": "dao",
          "type": "address"
        },
        {
          "internalType": "address",
          "name": "_addr",
          "type": "address"
        }
      ],
      "name": "isActiveMember",
      "outputs": [
        {
          "internalType": "bool",
          "name": "",
          "type": "bool"
        }
      ],
      "stateMutability": "view",
      "type": "function"
    },
    {
      "inputs": [
        {
          "internalType": "address",
          "name": "addr",
          "type": "address"
        }
      ],
      "name": "isNotReservedAddress",
      "outputs": [
        {
          "internalType": "bool",
          "name": "",
          "type": "bool"
        }
      ],
      "stateMutability": "pure",
      "type": "function"
    },
    {
      "inputs": [
        {
          "internalType": "address",
          "name": "addr",
          "type": "address"
        }
      ],
      "name": "isNotZeroAddress",
      "outputs": [
        {
          "internalType": "bool",
          "name": "",
          "type": "bool"
        }
      ],
      "stateMutability": "pure",
      "type": "function"
    },
    {
      "inputs": [
        {
          "internalType": "address",
          "name": "",
          "type": "address"
        },
        {
          "internalType": "bytes32",
          "name": "",
          "type": "bytes32"
        }
      ],
      "name": "proposals",
      "outputs": [
        {
          "internalType": "bytes32",
          "name": "adapterId",
          "type": "bytes32"
        },
        {
          "internalType": "address",
          "name": "adapterAddress",
          "type": "address"
        },
        {
          "internalType": "uint128",
          "name": "flags",
          "type": "uint128"
        }
      ],
      "stateMutability": "view",
      "type": "function"
    },
    {
      "inputs": [
        {
          "internalType": "uint256",
          "name": "flags",
          "type": "uint256"
        },
        {
          "internalType": "uint256",
          "name": "flag",
          "type": "uint256"
        },
        {
          "internalType": "bool",
          "name": "value",
          "type": "bool"
        }
      ],
      "name": "setFlag",
      "outputs": [
        {
          "internalType": "uint256",
          "name": "",
          "type": "uint256"
        }
      ],
      "stateMutability": "pure",
      "type": "function"
    },
    {
      "stateMutability": "payable",
      "type": "receive"
    },
    {
      "inputs": [
        {
          "internalType": "contract DaoRegistry",
          "name": "dao",
          "type": "address"
        },
        {
          "internalType": "bytes32",
          "name": "proposalId",
          "type": "bytes32"
        },
        {
          "components": [
            {
              "internalType": "bytes32",
              "name": "adapterId",
              "type": "bytes32"
            },
            {
              "internalType": "address",
              "name": "adapterAddress",
              "type": "address"
            },
            {
              "internalType": "uint128",
              "name": "flags",
              "type": "uint128"
            }
          ],
          "internalType": "struct IManaging.ProposalInput",
          "name": "proposal",
          "type": "tuple"
        },
        {
          "internalType": "bytes32[]",
          "name": "keys",
          "type": "bytes32[]"
        },
        {
          "internalType": "uint256[]",
          "name": "values",
          "type": "uint256[]"
        },
        {
          "internalType": "bytes",
          "name": "data",
          "type": "bytes"
        }
      ],
      "name": "submitProposal",
      "outputs": [],
      "stateMutability": "nonpayable",
      "type": "function"
    },
    {
      "inputs": [
        {
          "internalType": "contract DaoRegistry",
          "name": "dao",
          "type": "address"
        },
        {
          "internalType": "bytes32",
          "name": "proposalId",
          "type": "bytes32"
        }
      ],
      "name": "processProposal",
      "outputs": [],
      "stateMutability": "nonpayable",
      "type": "function"
    }
  ],
  "bytecode": "0x608060405234801561001057600080fd5b50611de6806100206000396000f3fe60806040526004361061007f5760003560e01c8063b244a41d1161004e578063b244a41d1461016b578063ca0f463314610198578063ef6a2499146101b8578063fc258031146101d8576100bf565b80635cb75276146100c45780638ecf7720146100fc5780639573167d14610129578063a0400a021461014b576100bf565b366100bf576040517f08c379a00000000000000000000000000000000000000000000000000000000081526004016100b690611af2565b60405180910390fd5b600080fd5b3480156100d057600080fd5b506100e46100df366004611462565b6101f8565b6040516100f3939291906117b4565b60405180910390f35b34801561010857600080fd5b5061011c6101173660046114a9565b610249565b6040516100f39190611774565b34801561013557600080fd5b506101496101443660046114e1565b610516565b005b34801561015757600080fd5b506101496101663660046114f3565b610ad2565b34801561017757600080fd5b5061018b61018636600461168b565b61117c565b6040516100f3919061177f565b3480156101a457600080fd5b5061011c6101b336600461142a565b6111d8565b3480156101c457600080fd5b5061011c6101d336600461142a565b6111f3565b3480156101e457600080fd5b5061011c6101f336600461166a565b61125e565b6000602081815292815260408082209093529081522080546001820154600490920154909173ffffffffffffffffffffffffffffffffffffffff16906fffffffffffffffffffffffffffffffff1683565b6000808373ffffffffffffffffffffffffffffffffffffffff1663fefbd8757fea0ca03c7adbe41dc655fec28a9209dc8e6e042f3d991a67765ba285b9cf73a06040518263ffffffff1660e01b81526004016102a5919061177f565b60206040518083038186803b1580156102bd57600080fd5b505afa1580156102d1573d6000803e3d6000fd5b505050506040513d601f19601f820116820180604052508101906102f59190611446565b905073ffffffffffffffffffffffffffffffffffffffff81161561046a576040517fc89bb8ba00000000000000000000000000000000000000000000000000000000815260009073ffffffffffffffffffffffffffffffffffffffff86169063c89bb8ba9061036890879060040161172c565b60206040518083038186803b15801561038057600080fd5b505afa158015610394573d6000803e3d6000fd5b505050506040513d601f19601f820116820180604052508101906103b89190611446565b905060008273ffffffffffffffffffffffffffffffffffffffff1663f7888aec83620ff1ce6040518363ffffffff1660e01b81526004016103fa92919061174d565b60206040518083038186803b15801561041257600080fd5b505afa158015610426573d6000803e3d6000fd5b505050506040513d601f19601f8201168201806040525081019061044a9190611446565b73ffffffffffffffffffffffffffffffffffffffff161192505050610510565b6040517fa230c52400000000000000000000000000000000000000000000000000000000815273ffffffffffffffffffffffffffffffffffffffff85169063a230c524906104bc90869060040161172c565b60206040518083038186803b1580156104d457600080fd5b505afa1580156104e8573d6000803e3d6000fd5b505050506040513d601f19601f8201168201806040525081019061050c919061148d565b9150505b92915050565b81438173ffffffffffffffffffffffffffffffffffffffff1663b21634826040518163ffffffff1660e01b815260040160206040518083038186803b15801561055e57600080fd5b505afa158015610572573d6000803e3d6000fd5b505050506040513d601f19601f820116820180604052508101906105969190611652565b14156105ce576040517f08c379a00000000000000000000000000000000000000000000000000000000081526004016100b6906119f0565b8073ffffffffffffffffffffffffffffffffffffffff166310fdb0a26040518163ffffffff1660e01b8152600401600060405180830381600087803b15801561061657600080fd5b505af115801561062a573d6000803e3d6000fd5b5050505073ffffffffffffffffffffffffffffffffffffffff8381166000908152602081815260408083208684528252808320815160a0810183528154815260018201549095168584015260028101805483518186028101860185528181529596959294938601938301828280156106c157602002820191906000526020600020905b8154815260200190600101908083116106ad575b505050505081526020016003820180548060200260200160405190810160405280929190818152602001828054801561071957602002820191906000526020600020905b815481526020019060010190808311610705575b50505091835250506004918201546fffffffffffffffffffffffffffffffff166020909101526040517f40de703e00000000000000000000000000000000000000000000000000000000815291925060009173ffffffffffffffffffffffffffffffffffffffff8716916340de703e916107959188910161177f565b60206040518083038186803b1580156107ad57600080fd5b505afa1580156107c1573d6000803e3d6000fd5b505050506040513d601f19601f820116820180604052508101906107e59190611446565b905073ffffffffffffffffffffffffffffffffffffffff8116610834576040517f08c379a00000000000000000000000000000000000000000000000000000000081526004016100b690611b29565b60026040517f76225e7300000000000000000000000000000000000000000000000000000000815273ffffffffffffffffffffffffffffffffffffffff8316906376225e739061088a90899089906004016118f8565b602060405180830381600087803b1580156108a457600080fd5b505af11580156108b8573d6000803e3d6000fd5b505050506040513d601f19601f820116820180604052508101906108dc9190611633565b6005811115610914577f4e487b7100000000000000000000000000000000000000000000000000000000600052602160045260246000fd5b1461094b576040517f08c379a00000000000000000000000000000000000000000000000000000000081526004016100b6906119b9565b6040517f30490e9100000000000000000000000000000000000000000000000000000000815273ffffffffffffffffffffffffffffffffffffffff8616906330490e919061099d90879060040161177f565b600060405180830381600087803b1580156109b757600080fd5b505af11580156109cb573d6000803e3d6000fd5b5050835160208501516080860151604080880151606089015191517fa37ff5e400000000000000000000000000000000000000000000000000000000815273ffffffffffffffffffffffffffffffffffffffff8d16975063a37ff5e49650610a3995949392906004016117f2565b600060405180830381600087803b158015610a5357600080fd5b505af1158015610a67573d6000803e3d6000fd5b5050505050508073ffffffffffffffffffffffffffffffffffffffff1663d4f7af436040518163ffffffff1660e01b8152600401600060405180830381600087803b158015610ab557600080fd5b505af1158015610ac9573d6000803e3d6000fd5b50505050505050565b85610add813361127b565b86438173ffffffffffffffffffffffffffffffffffffffff1663b21634826040518163ffffffff1660e01b815260040160206040518083038186803b158015610b2557600080fd5b505afa158015610b39573d6000803e3d6000fd5b505050506040513d601f19601f82011682018060405250810190610b5d9190611652565b1415610b95576040517f08c379a00000000000000000000000000000000000000000000000000000000081526004016100b6906119f0565b8073ffffffffffffffffffffffffffffffffffffffff166310fdb0a26040518163ffffffff1660e01b8152600401600060405180830381600087803b158015610bdd57600080fd5b505af1158015610bf1573d6000803e3d6000fd5b505050508351855114610c30576040517f08c379a00000000000000000000000000000000000000000000000000000000081526004016100b690611a5e565b60408601516fffffffffffffffffffffffffffffffff90811610610c80576040517f08c379a00000000000000000000000000000000000000000000000000000000081526004016100b690611abb565b610c8d86602001516111f3565b610cc3576040517f08c379a00000000000000000000000000000000000000000000000000000000081526004016100b69061195c565b6040517fb73dc38900000000000000000000000000000000000000000000000000000000815273ffffffffffffffffffffffffffffffffffffffff89169063b73dc38990610d15908a9060040161177f565b600060405180830381600087803b158015610d2f57600080fd5b505af1158015610d43573d6000803e3d6000fd5b505050506040518060a0016040528087600001518152602001876020015173ffffffffffffffffffffffffffffffffffffffff16815260200186815260200185815260200187604001516fffffffffffffffffffffffffffffffff168152506000808a73ffffffffffffffffffffffffffffffffffffffff1673ffffffffffffffffffffffffffffffffffffffff16815260200190815260200160002060008981526020019081526020016000206000820151816000015560208201518160010160006101000a81548173ffffffffffffffffffffffffffffffffffffffff021916908373ffffffffffffffffffffffffffffffffffffffff1602179055506040820151816002019080519060200190610e5e9291906112bf565b5060608201518051610e7a9160038401916020909101906112bf565b5060809190910151600491820180547fffffffffffffffffffffffffffffffff00000000000000000000000000000000166fffffffffffffffffffffffffffffffff9092169190911790556040517f17ba7d8500000000000000000000000000000000000000000000000000000000815260009173ffffffffffffffffffffffffffffffffffffffff8b16916317ba7d8591610f38917f0e49311626a26ba5be58a3b13d239908e80ce0dffdd5c50bf1d9c82ff35d1ab3910161177f565b60206040518083038186803b158015610f5057600080fd5b505afa158015610f64573d6000803e3d6000fd5b505050506040513d601f19601f82011682018060405250810190610f889190611446565b90508873ffffffffffffffffffffffffffffffffffffffff1663896ae9ba898373ffffffffffffffffffffffffffffffffffffffff1663966917d08d308a336040518563ffffffff1660e01b8152600401610fe694939291906118ac565b602060405180830381600087803b15801561100057600080fd5b505af1158015611014573d6000803e3d6000fd5b505050506040513d601f19601f820116820180604052508101906110389190611446565b846040518463ffffffff1660e01b815260040161105793929190611788565b600060405180830381600087803b15801561107157600080fd5b505af1158015611085573d6000803e3d6000fd5b50506040517f2b0974d000000000000000000000000000000000000000000000000000000000815273ffffffffffffffffffffffffffffffffffffffff84169250632b0974d091506110df908c908c90899060040161191e565b600060405180830381600087803b1580156110f957600080fd5b505af115801561110d573d6000803e3d6000fd5b50505050508073ffffffffffffffffffffffffffffffffffffffff1663d4f7af436040518163ffffffff1660e01b8152600401600060405180830381600087803b15801561115a57600080fd5b505af115801561116e573d6000803e3d6000fd5b505050505050505050505050565b600081151561118b858561125e565b1515146111ce5781156111b4576111a3836002611be8565b6111ad9085611b8a565b90506111d1565b6111bf836002611be8565b6111ad9085611ccf565b6111d1565b50825b9392505050565b73ffffffffffffffffffffffffffffffffffffffff16151590565b600073ffffffffffffffffffffffffffffffffffffffff821661dead14801590611235575073ffffffffffffffffffffffffffffffffffffffff821661babe14155b8015610510575073ffffffffffffffffffffffffffffffffffffffff8216614bec141592915050565b6000611271600260ff841685901c611ce6565b6001149392505050565b6112858282610249565b6112bb576040517f08c379a00000000000000000000000000000000000000000000000000000000081526004016100b690611a27565b5050565b8280548282559060005260206000209081019282156112fa579160200282015b828111156112fa5782518255916020019190600101906112df565b5061130692915061130a565b5090565b5b80821115611306576000815560010161130b565b600082601f83011261132f578081fd5b8135602067ffffffffffffffff82111561134b5761134b611d4e565b808202611359828201611b60565b838152828101908684018388018501891015611373578687fd5b8693505b85841015611395578035835260019390930192918401918401611377565b50979650505050505050565b600082601f8301126113b1578081fd5b813567ffffffffffffffff8111156113cb576113cb611d4e565b6113fc60207fffffffffffffffffffffffffffffffffffffffffffffffffffffffffffffffe0601f84011601611b60565b818152846020838601011115611410578283fd5b816020850160208301379081016020019190915292915050565b60006020828403121561143b578081fd5b81356111d181611d7d565b600060208284031215611457578081fd5b81516111d181611d7d565b60008060408385031215611474578081fd5b823561147f81611d7d565b946020939093013593505050565b60006020828403121561149e578081fd5b81516111d181611da2565b600080604083850312156114bb578182fd5b82356114c681611d7d565b915060208301356114d681611d7d565b809150509250929050565b60008060408385031215611474578182fd5b60008060008060008086880361010081121561150d578283fd5b873561151881611d7d565b96506020880135955060607fffffffffffffffffffffffffffffffffffffffffffffffffffffffffffffffc082011215611550578283fd5b506040516060810167ffffffffffffffff828210818311171561157557611575611d4e565b8160405260408a0135835260608a0135915061159082611d7d565b81602084015260808a013591506fffffffffffffffffffffffffffffffff821682146115ba578485fd5b81604084015282965060a08a01359250808311156115d6578485fd5b6115e28b848c0161131f565b955060c08a01359250808311156115f7578485fd5b6116038b848c0161131f565b945060e08a0135925080831115611618578384fd5b505061162689828a016113a1565b9150509295509295509295565b600060208284031215611644578081fd5b8151600681106111d1578182fd5b600060208284031215611663578081fd5b5051919050565b6000806040838503121561167c578182fd5b50508035926020909101359150565b60008060006060848603121561169f578081fd5b833592506020840135915060408401356116b881611da2565b809150509250925092565b60008151808452815b818110156116e8576020818501810151868301820152016116cc565b818111156116f95782602083870101525b50601f017fffffffffffffffffffffffffffffffffffffffffffffffffffffffffffffffe0169290920160200192915050565b73ffffffffffffffffffffffffffffffffffffffff91909116815260200190565b73ffffffffffffffffffffffffffffffffffffffff92831681529116602082015260400190565b901515815260200190565b90815260200190565b92835273ffffffffffffffffffffffffffffffffffffffff918216602084015216604082015260600190565b92835273ffffffffffffffffffffffffffffffffffffffff9190911660208301526fffffffffffffffffffffffffffffffff16604082015260600190565b600060a08201878352602073ffffffffffffffffffffffffffffffffffffffff8816818501526fffffffffffffffffffffffffffffffff8716604085015260a0606085015281865180845260c0860191508288019350845b818110156118665784518352938301939183019160010161184a565b505084810360808601528551808252908201925081860190845b8181101561189c57825185529383019391830191600101611880565b50929a9950505050505050505050565b600073ffffffffffffffffffffffffffffffffffffffff80871683528086166020840152608060408401526118e460808401866116c3565b915080841660608401525095945050505050565b73ffffffffffffffffffffffffffffffffffffffff929092168252602082015260400190565b600073ffffffffffffffffffffffffffffffffffffffff851682528360208301526060604083015261195360608301846116c3565b95945050505050565b60208082526023908201527f616461707465722061646472657373206973207265736572766564206164647260408201527f6573730000000000000000000000000000000000000000000000000000000000606082015260800190565b60208082526015908201527f70726f706f73616c20646964206e6f7420706173730000000000000000000000604082015260600190565b60208082526010908201527f7265656e7472616e637920677561726400000000000000000000000000000000604082015260600190565b6020808252600a908201527f6f6e6c794d656d62657200000000000000000000000000000000000000000000604082015260600190565b60208082526031908201527f6d75737420626520616e20657175616c206e756d626572206f6620636f6e666960408201527f67206b65797320616e642076616c756573000000000000000000000000000000606082015260800190565b60208082526018908201527f666c61677320706172616d65746572206f766572666c6f770000000000000000604082015260600190565b6020808252600f908201527f66616c6c6261636b207265766572740000000000000000000000000000000000604082015260600190565b60208082526011908201527f61646170746572206e6f7420666f756e64000000000000000000000000000000604082015260600190565b60405181810167ffffffffffffffff81118282101715611b8257611b82611d4e565b604052919050565b60008219821115611b9d57611b9d611d1f565b500190565b80825b6001808611611bb45750611bdf565b818704821115611bc657611bc6611d1f565b80861615611bd357918102915b9490941c938002611ba5565b94509492505050565b60006111d17fffffffffffffffffffffffffffffffffffffffffffffffffffffffffffffffff8484600082611c1f575060016111d1565b81611c2c575060006111d1565b8160018114611c425760028114611c4c57611c79565b60019150506111d1565b60ff841115611c5d57611c5d611d1f565b6001841b915084821115611c7357611c73611d1f565b506111d1565b5060208310610133831016604e8410600b8410161715611ca7575081810a838111156111c9576111c9611d1f565b611cb48484846001611ba2565b808604821115611cc657611cc6611d1f565b02949350505050565b600082821015611ce157611ce1611d1f565b500390565b600082611d1a577f4e487b710000000000000000000000000000000000000000000000000000000081526012600452602481fd5b500690565b7f4e487b7100000000000000000000000000000000000000000000000000000000600052601160045260246000fd5b7f4e487b7100000000000000000000000000000000000000000000000000000000600052604160045260246000fd5b73ffffffffffffffffffffffffffffffffffffffff81168114611d9f57600080fd5b50565b8015158114611d9f57600080fdfea264697066735822122066f2ff8f26fcd3f76325cdf113caac4056744ffa34e69711a27eb407276b704864736f6c63430008000033",
  "immutableReferences": {},
  "source": "pragma solidity ^0.8.0;\n\n// SPDX-License-Identifier: MIT\n\nimport \"./interfaces/IManaging.sol\";\nimport \"../core/DaoConstants.sol\";\nimport \"../core/DaoRegistry.sol\";\nimport \"../adapters/interfaces/IVoting.sol\";\nimport \"../guards/MemberGuard.sol\";\nimport \"../guards/AdapterGuard.sol\";\n\n/**\nMIT License\n\nCopyright (c) 2020 Openlaw\n\nPermission is hereby granted, free of charge, to any person obtaining a copy\nof this software and associated documentation files (the \"Software\"), to deal\nin the Software without restriction, including without limitation the rights\nto use, copy, modify, merge, publish, distribute, sublicense, and/or sell\ncopies of the Software, and to permit persons to whom the Software is\nfurnished to do so, subject to the following conditions:\n\nThe above copyright notice and this permission notice shall be included in all\ncopies or substantial portions of the Software.\n\nTHE SOFTWARE IS PROVIDED \"AS IS\", WITHOUT WARRANTY OF ANY KIND, EXPRESS OR\nIMPLIED, INCLUDING BUT NOT LIMITED TO THE WARRANTIES OF MERCHANTABILITY,\nFITNESS FOR A PARTICULAR PURPOSE AND NONINFRINGEMENT. IN NO EVENT SHALL THE\nAUTHORS OR COPYRIGHT HOLDERS BE LIABLE FOR ANY CLAIM, DAMAGES OR OTHER\nLIABILITY, WHETHER IN AN ACTION OF CONTRACT, TORT OR OTHERWISE, ARISING FROM,\nOUT OF OR IN CONNECTION WITH THE SOFTWARE OR THE USE OR OTHER DEALINGS IN THE\nSOFTWARE.\n */\n\ncontract ManagingContract is\n    IManaging,\n    DaoConstants,\n    MemberGuard,\n    AdapterGuard\n{\n    struct ProposalDetails {\n        bytes32 adapterId;\n        address adapterAddress;\n        bytes32[] keys;\n        uint256[] values;\n        uint128 flags;\n    }\n\n    mapping(address => mapping(bytes32 => ProposalDetails)) public proposals;\n\n    /*\n     * default fallback function to prevent from sending ether to the contract\n     */\n    receive() external payable {\n        revert(\"fallback revert\");\n    }\n\n    /**\n     * @notice Creates a proposal to replace, remove or add an adapter.\n     * @dev If the adapterAddress is equal to 0x0, the adapterId is removed from the registry if available.\n     * @dev If the adapterAddress is a reserved address, it reverts.\n     * @dev keys and value must have the same length.\n     * @dev proposalId can not be reused.\n     * @param dao The dao address.\n     * @param proposalId The guild kick proposal id.\n     * @param proposal proposal details\n     */\n    function submitProposal(\n        DaoRegistry dao,\n        bytes32 proposalId,\n        ProposalInput memory proposal,\n        bytes32[] memory keys,\n        uint256[] memory values,\n        bytes memory data\n    ) external override onlyMember(dao) reentrancyGuard(dao) {\n        require(\n            keys.length == values.length,\n            \"must be an equal number of config keys and values\"\n        );\n\n        require(proposal.flags < type(uint128).max, \"flags parameter overflow\");\n\n        require(\n            isNotReservedAddress(proposal.adapterAddress),\n            \"adapter address is reserved address\"\n        );\n\n        dao.submitProposal(proposalId);\n\n        proposals[address(dao)][proposalId] = ProposalDetails(\n            proposal.adapterId,\n            proposal.adapterAddress,\n            keys,\n            values,\n            proposal.flags\n        );\n\n        IVoting votingContract = IVoting(dao.getAdapterAddress(VOTING));\n\n        dao.sponsorProposal(\n            proposalId,\n            votingContract.getSenderAddress(\n                dao,\n                address(this),\n                data,\n                msg.sender\n            ),\n            address(votingContract)\n        );\n        votingContract.startNewVotingForProposal(dao, proposalId, data);\n    }\n\n    /**\n     * @notice Processes a proposal that was sponsored.\n     * @dev Only members can process a proposal.\n     * @dev Only if the voting pass the proposal is processed.\n     * @dev Reverts when the adapter address is already in use and it is an adapter addition.\n     * @param dao The dao address.\n     * @param proposalId The guild kick proposal id.\n     */\n    function processProposal(DaoRegistry dao, bytes32 proposalId)\n        external\n        override\n        reentrancyGuard(dao)\n    {\n        ProposalDetails memory proposal = proposals[address(dao)][proposalId];\n\n        IVoting votingContract = IVoting(dao.votingAdapter(proposalId));\n        require(address(votingContract) != address(0), \"adapter not found\");\n\n        require(\n            votingContract.voteResult(dao, proposalId) ==\n                IVoting.VotingState.PASS,\n            \"proposal did not pass\"\n        );\n\n        dao.processProposal(proposalId);\n        dao.replaceAdapter(\n            proposal.adapterId,\n            proposal.adapterAddress,\n            proposal.flags,\n            proposal.keys,\n            proposal.values\n        );\n    }\n}\n",
  "sourcePath": "/Users/jd/openlaw/openlawteam/tribute-contracts/contracts/adapters/Managing.sol",
  "compiler": {
    "name": "solc",
    "version": "0.8.0+commit.c7dfd78e.Emscripten.clang"
  },
  "schemaVersion": "3.3.4",
  "updatedAt": "2021-09-15T21:34:50.422Z",
  "devdoc": {
    "kind": "dev",
    "methods": {
      "processProposal(address,bytes32)": {
        "details": "Only members can process a proposal.Only if the voting pass the proposal is processed.Reverts when the adapter address is already in use and it is an adapter addition.",
        "params": {
          "dao": "The dao address.",
          "proposalId": "The guild kick proposal id."
        }
      },
      "submitProposal(address,bytes32,(bytes32,address,uint128),bytes32[],uint256[],bytes)": {
        "details": "If the adapterAddress is equal to 0x0, the adapterId is removed from the registry if available.If the adapterAddress is a reserved address, it reverts.keys and value must have the same length.proposalId can not be reused.",
        "params": {
          "dao": "The dao address.",
          "proposal": "proposal details",
          "proposalId": "The guild kick proposal id."
        }
      }
    },
    "version": 1
  },
  "userdoc": {
    "kind": "user",
    "methods": {
      "isNotReservedAddress(address)": {
        "notice": "Checks if a given address is reserved."
      },
      "isNotZeroAddress(address)": {
        "notice": "Checks if a given address is zeroed."
      },
      "processProposal(address,bytes32)": {
        "notice": "Processes a proposal that was sponsored."
      },
      "submitProposal(address,bytes32,(bytes32,address,uint128),bytes32[],uint256[],bytes)": {
        "notice": "Creates a proposal to replace, remove or add an adapter."
      }
    },
    "notice": "MIT License Copyright (c) 2020 Openlaw Permission is hereby granted, free of charge, to any person obtaining a copy of this software and associated documentation files (the \"Software\"), to deal in the Software without restriction, including without limitation the rights to use, copy, modify, merge, publish, distribute, sublicense, and/or sell copies of the Software, and to permit persons to whom the Software is furnished to do so, subject to the following conditions: The above copyright notice and this permission notice shall be included in all copies or substantial portions of the Software. THE SOFTWARE IS PROVIDED \"AS IS\", WITHOUT WARRANTY OF ANY KIND, EXPRESS OR IMPLIED, INCLUDING BUT NOT LIMITED TO THE WARRANTIES OF MERCHANTABILITY, FITNESS FOR A PARTICULAR PURPOSE AND NONINFRINGEMENT. IN NO EVENT SHALL THE AUTHORS OR COPYRIGHT HOLDERS BE LIABLE FOR ANY CLAIM, DAMAGES OR OTHER LIABILITY, WHETHER IN AN ACTION OF CONTRACT, TORT OR OTHERWISE, ARISING FROM, OUT OF OR IN CONNECTION WITH THE SOFTWARE OR THE USE OR OTHER DEALINGS IN THE SOFTWARE.",
    "version": 1
  }
}