{
  "contractName": "OffchainVotingContract",
  "abi": [
    {
      "inputs": [
        {
          "internalType": "contract VotingContract",
          "name": "_c",
          "type": "address"
        },
        {
          "internalType": "contract SnapshotProposalContract",
          "name": "_spc",
          "type": "address"
        },
        {
          "internalType": "contract KickBadReporterAdapter",
          "name": "_hbra",
          "type": "address"
        },
        {
          "internalType": "address",
          "name": "_owner",
          "type": "address"
        }
      ],
      "stateMutability": "nonpayable",
      "type": "constructor"
    },
    {
      "anonymous": false,
      "inputs": [
        {
          "indexed": true,
          "internalType": "address",
          "name": "previousOwner",
          "type": "address"
        },
        {
          "indexed": true,
          "internalType": "address",
          "name": "newOwner",
          "type": "address"
        }
      ],
      "name": "OwnershipTransferred",
      "type": "event"
    },
    {
      "inputs": [],
      "name": "ADAPTER_NAME",
      "outputs": [
        {
          "internalType": "string",
          "name": "",
          "type": "string"
        }
      ],
      "stateMutability": "view",
      "type": "function"
    },
    {
      "inputs": [],
      "name": "EIP712_DOMAIN",
      "outputs": [
        {
          "internalType": "string",
          "name": "",
          "type": "string"
        }
      ],
      "stateMutability": "view",
      "type": "function"
    },
    {
      "inputs": [],
      "name": "EIP712_DOMAIN_TYPEHASH",
      "outputs": [
        {
          "internalType": "bytes32",
          "name": "",
          "type": "bytes32"
        }
      ],
      "stateMutability": "view",
      "type": "function"
    },
    {
      "inputs": [],
      "name": "NB_CHOICES",
      "outputs": [
        {
          "internalType": "uint256",
          "name": "",
          "type": "uint256"
        }
      ],
      "stateMutability": "view",
      "type": "function"
    },
    {
      "inputs": [],
      "name": "VOTE_RESULT_NODE_TYPE",
      "outputs": [
        {
          "internalType": "string",
          "name": "",
          "type": "string"
        }
      ],
      "stateMutability": "view",
      "type": "function"
    },
    {
      "inputs": [],
      "name": "VOTE_RESULT_NODE_TYPEHASH",
      "outputs": [
        {
          "internalType": "bytes32",
          "name": "",
          "type": "bytes32"
        }
      ],
      "stateMutability": "view",
      "type": "function"
    },
    {
      "inputs": [],
      "name": "VOTE_RESULT_ROOT_TYPE",
      "outputs": [
        {
          "internalType": "string",
          "name": "",
          "type": "string"
        }
      ],
      "stateMutability": "view",
      "type": "function"
    },
    {
      "inputs": [],
      "name": "VOTE_RESULT_ROOT_TYPEHASH",
      "outputs": [
        {
          "internalType": "bytes32",
          "name": "",
          "type": "bytes32"
        }
      ],
      "stateMutability": "view",
      "type": "function"
    },
    {
      "inputs": [
        {
          "internalType": "contract DaoRegistry",
          "name": "dao",
          "type": "address"
        },
        {
          "internalType": "uint256",
          "name": "chainId",
          "type": "uint256"
        },
        {
          "internalType": "address",
          "name": "actionId",
          "type": "address"
        }
      ],
      "name": "domainSeparator",
      "outputs": [
        {
          "internalType": "bytes32",
          "name": "",
          "type": "bytes32"
        }
      ],
      "stateMutability": "pure",
      "type": "function"
    },
    {
      "inputs": [],
      "name": "fallbackVoting",
      "outputs": [
        {
          "internalType": "contract VotingContract",
          "name": "",
          "type": "address"
        }
      ],
      "stateMutability": "view",
      "type": "function"
    },
    {
      "inputs": [
        {
          "internalType": "uint256",
          "name": "flags",
          "type": "uint256"
        },
        {
          "internalType": "uint256",
          "name": "flag",
          "type": "uint256"
        }
      ],
      "name": "getFlag",
      "outputs": [
        {
          "internalType": "bool",
          "name": "",
          "type": "bool"
        }
      ],
      "stateMutability": "pure",
      "type": "function"
    },
    {
      "inputs": [
        {
          "internalType": "contract DaoRegistry",
          "name": "dao",
          "type": "address"
        },
        {
          "internalType": "uint256",
          "name": "chainId",
          "type": "uint256"
        },
        {
          "internalType": "address",
          "name": "actionId",
          "type": "address"
        },
        {
          "internalType": "bytes32",
          "name": "message",
          "type": "bytes32"
        }
      ],
      "name": "hashMessage",
      "outputs": [
        {
          "internalType": "bytes32",
          "name": "",
          "type": "bytes32"
        }
      ],
      "stateMutability": "pure",
      "type": "function"
    },
    {
      "inputs": [
        {
          "internalType": "contract DaoRegistry",
          "name": "dao",
          "type": "address"
        },
        {
          "internalType": "address",
          "name": "_addr",
          "type": "address"
        }
      ],
      "name": "isActiveMember",
      "outputs": [
        {
          "internalType": "bool",
          "name": "",
          "type": "bool"
        }
      ],
      "stateMutability": "view",
      "type": "function"
    },
    {
      "inputs": [
        {
          "internalType": "address",
          "name": "addr",
          "type": "address"
        }
      ],
      "name": "isNotReservedAddress",
      "outputs": [
        {
          "internalType": "bool",
          "name": "",
          "type": "bool"
        }
      ],
      "stateMutability": "pure",
      "type": "function"
    },
    {
      "inputs": [
        {
          "internalType": "address",
          "name": "addr",
          "type": "address"
        }
      ],
      "name": "isNotZeroAddress",
      "outputs": [
        {
          "internalType": "bool",
          "name": "",
          "type": "bool"
        }
      ],
      "stateMutability": "pure",
      "type": "function"
    },
    {
      "inputs": [],
      "name": "owner",
      "outputs": [
        {
          "internalType": "address",
          "name": "",
          "type": "address"
        }
      ],
      "stateMutability": "view",
      "type": "function"
    },
    {
      "inputs": [
        {
          "internalType": "bytes32",
          "name": "hash",
          "type": "bytes32"
        },
        {
          "internalType": "bytes",
          "name": "sig",
          "type": "bytes"
        }
      ],
      "name": "recover",
      "outputs": [
        {
          "internalType": "address",
          "name": "",
          "type": "address"
        }
      ],
      "stateMutability": "pure",
      "type": "function"
    },
    {
      "inputs": [],
      "name": "renounceOwnership",
      "outputs": [],
      "stateMutability": "nonpayable",
      "type": "function"
    },
    {
      "inputs": [
        {
          "internalType": "uint256",
          "name": "flags",
          "type": "uint256"
        },
        {
          "internalType": "uint256",
          "name": "flag",
          "type": "uint256"
        },
        {
          "internalType": "bool",
          "name": "value",
          "type": "bool"
        }
      ],
      "name": "setFlag",
      "outputs": [
        {
          "internalType": "uint256",
          "name": "",
          "type": "uint256"
        }
      ],
      "stateMutability": "pure",
      "type": "function"
    },
    {
      "inputs": [
        {
          "internalType": "address",
          "name": "newOwner",
          "type": "address"
        }
      ],
      "name": "transferOwnership",
      "outputs": [],
      "stateMutability": "nonpayable",
      "type": "function"
    },
    {
      "inputs": [
        {
          "internalType": "address",
          "name": "",
          "type": "address"
        },
        {
          "internalType": "bytes32",
          "name": "",
          "type": "bytes32"
        }
      ],
      "name": "votes",
      "outputs": [
        {
          "internalType": "uint256",
          "name": "snapshot",
          "type": "uint256"
        },
        {
          "internalType": "address",
          "name": "reporter",
          "type": "address"
        },
        {
          "internalType": "bytes32",
          "name": "resultRoot",
          "type": "bytes32"
        },
        {
          "internalType": "uint256",
          "name": "nbYes",
          "type": "uint256"
        },
        {
          "internalType": "uint256",
          "name": "nbNo",
          "type": "uint256"
        },
        {
          "internalType": "uint256",
          "name": "startingTime",
          "type": "uint256"
        },
        {
          "internalType": "uint256",
          "name": "gracePeriodStartingTime",
          "type": "uint256"
        },
        {
          "internalType": "bool",
          "name": "isChallenged",
          "type": "bool"
        },
        {
          "internalType": "bool",
          "name": "forceFailed",
          "type": "bool"
        },
        {
          "internalType": "uint256",
          "name": "fallbackVotesCount",
          "type": "uint256"
        }
      ],
      "stateMutability": "view",
      "type": "function"
    },
    {
      "inputs": [
        {
          "internalType": "contract DaoRegistry",
          "name": "dao",
          "type": "address"
        },
        {
          "internalType": "bytes32",
          "name": "proposalId",
          "type": "bytes32"
        }
      ],
      "name": "adminFailProposal",
      "outputs": [],
      "stateMutability": "nonpayable",
      "type": "function"
    },
    {
      "inputs": [
        {
          "internalType": "contract DaoRegistry",
          "name": "dao",
          "type": "address"
        },
        {
          "internalType": "address",
          "name": "actionId",
          "type": "address"
        },
        {
          "internalType": "bytes32",
          "name": "resultRoot",
          "type": "bytes32"
        }
      ],
      "name": "hashResultRoot",
      "outputs": [
        {
          "internalType": "bytes32",
          "name": "",
          "type": "bytes32"
        }
      ],
      "stateMutability": "view",
      "type": "function"
    },
    {
      "inputs": [],
      "name": "getAdapterName",
      "outputs": [
        {
          "internalType": "string",
          "name": "",
          "type": "string"
        }
      ],
      "stateMutability": "pure",
      "type": "function"
    },
    {
      "inputs": [
        {
          "internalType": "contract DaoRegistry",
          "name": "dao",
          "type": "address"
        },
        {
          "internalType": "bytes32",
          "name": "proposalId",
          "type": "bytes32"
        }
      ],
      "name": "getChallengeDetails",
      "outputs": [
        {
          "internalType": "uint256",
          "name": "",
          "type": "uint256"
        },
        {
          "internalType": "address",
          "name": "",
          "type": "address"
        }
      ],
      "stateMutability": "view",
      "type": "function"
    },
    {
      "inputs": [
        {
          "components": [
            {
              "internalType": "uint32",
              "name": "choice",
              "type": "uint32"
            },
            {
              "internalType": "uint64",
              "name": "index",
              "type": "uint64"
            },
            {
              "internalType": "uint64",
              "name": "timestamp",
              "type": "uint64"
            },
            {
              "internalType": "uint88",
              "name": "nbNo",
              "type": "uint88"
            },
            {
              "internalType": "uint88",
              "name": "nbYes",
              "type": "uint88"
            },
            {
              "internalType": "bytes",
              "name": "sig",
              "type": "bytes"
            },
            {
              "internalType": "bytes32",
              "name": "proposalId",
              "type": "bytes32"
            },
            {
              "internalType": "bytes32[]",
              "name": "proof",
              "type": "bytes32[]"
            }
          ],
          "internalType": "struct OffchainVotingContract.VoteResultNode",
          "name": "node",
          "type": "tuple"
        }
      ],
      "name": "hashVotingResultNode",
      "outputs": [
        {
          "internalType": "bytes32",
          "name": "",
          "type": "bytes32"
        }
      ],
      "stateMutability": "pure",
      "type": "function"
    },
    {
      "inputs": [
        {
          "internalType": "contract DaoRegistry",
          "name": "dao",
          "type": "address"
        },
        {
          "internalType": "address",
          "name": "actionId",
          "type": "address"
        },
        {
          "components": [
            {
              "internalType": "uint32",
              "name": "choice",
              "type": "uint32"
            },
            {
              "internalType": "uint64",
              "name": "index",
              "type": "uint64"
            },
            {
              "internalType": "uint64",
              "name": "timestamp",
              "type": "uint64"
            },
            {
              "internalType": "uint88",
              "name": "nbNo",
              "type": "uint88"
            },
            {
              "internalType": "uint88",
              "name": "nbYes",
              "type": "uint88"
            },
            {
              "internalType": "bytes",
              "name": "sig",
              "type": "bytes"
            },
            {
              "internalType": "bytes32",
              "name": "proposalId",
              "type": "bytes32"
            },
            {
              "internalType": "bytes32[]",
              "name": "proof",
              "type": "bytes32[]"
            }
          ],
          "internalType": "struct OffchainVotingContract.VoteResultNode",
          "name": "node",
          "type": "tuple"
        }
      ],
      "name": "nodeHash",
      "outputs": [
        {
          "internalType": "bytes32",
          "name": "",
          "type": "bytes32"
        }
      ],
      "stateMutability": "view",
      "type": "function"
    },
    {
      "inputs": [
        {
          "internalType": "contract DaoRegistry",
          "name": "dao",
          "type": "address"
        },
        {
          "internalType": "uint256",
          "name": "votingPeriod",
          "type": "uint256"
        },
        {
          "internalType": "uint256",
          "name": "gracePeriod",
          "type": "uint256"
        },
        {
          "internalType": "uint256",
          "name": "fallbackThreshold",
          "type": "uint256"
        }
      ],
      "name": "configureDao",
      "outputs": [],
      "stateMutability": "nonpayable",
      "type": "function"
    },
    {
      "inputs": [
        {
          "internalType": "contract DaoRegistry",
          "name": "dao",
          "type": "address"
        },
        {
          "internalType": "bytes32",
          "name": "proposalId",
          "type": "bytes32"
        },
        {
          "internalType": "bytes32",
          "name": "resultRoot",
          "type": "bytes32"
        },
        {
          "components": [
            {
              "internalType": "uint32",
              "name": "choice",
              "type": "uint32"
            },
            {
              "internalType": "uint64",
              "name": "index",
              "type": "uint64"
            },
            {
              "internalType": "uint64",
              "name": "timestamp",
              "type": "uint64"
            },
            {
              "internalType": "uint88",
              "name": "nbNo",
              "type": "uint88"
            },
            {
              "internalType": "uint88",
              "name": "nbYes",
              "type": "uint88"
            },
            {
              "internalType": "bytes",
              "name": "sig",
              "type": "bytes"
            },
            {
              "internalType": "bytes32",
              "name": "proposalId",
              "type": "bytes32"
            },
            {
              "internalType": "bytes32[]",
              "name": "proof",
              "type": "bytes32[]"
            }
          ],
          "internalType": "struct OffchainVotingContract.VoteResultNode",
          "name": "result",
          "type": "tuple"
        },
        {
          "internalType": "bytes",
          "name": "rootSig",
          "type": "bytes"
        }
      ],
      "name": "submitVoteResult",
      "outputs": [],
      "stateMutability": "nonpayable",
      "type": "function"
    },
    {
      "inputs": [
        {
          "internalType": "contract DaoRegistry",
          "name": "dao",
          "type": "address"
        },
        {
          "internalType": "address",
          "name": "actionId",
          "type": "address"
        },
        {
          "internalType": "bytes",
          "name": "data",
          "type": "bytes"
        },
        {
          "internalType": "address",
          "name": "",
          "type": "address"
        }
      ],
      "name": "getSenderAddress",
      "outputs": [
        {
          "internalType": "address",
          "name": "",
          "type": "address"
        }
      ],
      "stateMutability": "view",
      "type": "function"
    },
    {
      "inputs": [
        {
          "internalType": "contract DaoRegistry",
          "name": "dao",
          "type": "address"
        },
        {
          "internalType": "bytes32",
          "name": "proposalId",
          "type": "bytes32"
        },
        {
          "internalType": "bytes",
          "name": "data",
          "type": "bytes"
        }
      ],
      "name": "startNewVotingForProposal",
      "outputs": [],
      "stateMutability": "nonpayable",
      "type": "function"
    },
    {
      "inputs": [
        {
          "internalType": "contract DaoRegistry",
          "name": "dao",
          "type": "address"
        },
        {
          "internalType": "bytes32",
          "name": "proposalId",
          "type": "bytes32"
        }
      ],
      "name": "voteResult",
      "outputs": [
        {
          "internalType": "enum IVoting.VotingState",
          "name": "state",
          "type": "uint8"
        }
      ],
      "stateMutability": "view",
      "type": "function"
    },
    {
      "inputs": [
        {
          "internalType": "contract DaoRegistry",
          "name": "dao",
          "type": "address"
        },
        {
          "internalType": "bytes32",
          "name": "proposalId",
          "type": "bytes32"
        },
        {
          "components": [
            {
              "internalType": "uint32",
              "name": "choice",
              "type": "uint32"
            },
            {
              "internalType": "uint64",
              "name": "index",
              "type": "uint64"
            },
            {
              "internalType": "uint64",
              "name": "timestamp",
              "type": "uint64"
            },
            {
              "internalType": "uint88",
              "name": "nbNo",
              "type": "uint88"
            },
            {
              "internalType": "uint88",
              "name": "nbYes",
              "type": "uint88"
            },
            {
              "internalType": "bytes",
              "name": "sig",
              "type": "bytes"
            },
            {
              "internalType": "bytes32",
              "name": "proposalId",
              "type": "bytes32"
            },
            {
              "internalType": "bytes32[]",
              "name": "proof",
              "type": "bytes32[]"
            }
          ],
          "internalType": "struct OffchainVotingContract.VoteResultNode",
          "name": "node",
          "type": "tuple"
        }
      ],
      "name": "challengeBadFirstNode",
      "outputs": [],
      "stateMutability": "nonpayable",
      "type": "function"
    },
    {
      "inputs": [
        {
          "internalType": "contract DaoRegistry",
          "name": "dao",
          "type": "address"
        },
        {
          "internalType": "bytes32",
          "name": "proposalId",
          "type": "bytes32"
        },
        {
          "components": [
            {
              "internalType": "uint32",
              "name": "choice",
              "type": "uint32"
            },
            {
              "internalType": "uint64",
              "name": "index",
              "type": "uint64"
            },
            {
              "internalType": "uint64",
              "name": "timestamp",
              "type": "uint64"
            },
            {
              "internalType": "uint88",
              "name": "nbNo",
              "type": "uint88"
            },
            {
              "internalType": "uint88",
              "name": "nbYes",
              "type": "uint88"
            },
            {
              "internalType": "bytes",
              "name": "sig",
              "type": "bytes"
            },
            {
              "internalType": "bytes32",
              "name": "proposalId",
              "type": "bytes32"
            },
            {
              "internalType": "bytes32[]",
              "name": "proof",
              "type": "bytes32[]"
            }
          ],
          "internalType": "struct OffchainVotingContract.VoteResultNode",
          "name": "node",
          "type": "tuple"
        }
      ],
      "name": "challengeBadNode",
      "outputs": [],
      "stateMutability": "nonpayable",
      "type": "function"
    },
    {
      "inputs": [
        {
          "internalType": "contract DaoRegistry",
          "name": "dao",
          "type": "address"
        },
        {
          "internalType": "bytes32",
          "name": "proposalId",
          "type": "bytes32"
        },
        {
          "internalType": "bool",
          "name": "submitNewVote",
          "type": "bool"
        },
        {
          "internalType": "bytes32",
          "name": "resultRoot",
          "type": "bytes32"
        },
        {
          "internalType": "uint256",
          "name": "blockNumber",
          "type": "uint256"
        },
        {
          "internalType": "uint256",
          "name": "gracePeriodStartingTime",
          "type": "uint256"
        },
        {
          "components": [
            {
              "internalType": "uint32",
              "name": "choice",
              "type": "uint32"
            },
            {
              "internalType": "uint64",
              "name": "index",
              "type": "uint64"
            },
            {
              "internalType": "uint64",
              "name": "timestamp",
              "type": "uint64"
            },
            {
              "internalType": "uint88",
              "name": "nbNo",
              "type": "uint88"
            },
            {
              "internalType": "uint88",
              "name": "nbYes",
              "type": "uint88"
            },
            {
              "internalType": "bytes",
              "name": "sig",
              "type": "bytes"
            },
            {
              "internalType": "bytes32",
              "name": "proposalId",
              "type": "bytes32"
            },
            {
              "internalType": "bytes32[]",
              "name": "proof",
              "type": "bytes32[]"
            }
          ],
          "internalType": "struct OffchainVotingContract.VoteResultNode",
          "name": "node",
          "type": "tuple"
        }
      ],
      "name": "getBadNodeError",
      "outputs": [
        {
          "internalType": "enum OffchainVotingContract.BadNodeError",
          "name": "",
          "type": "uint8"
        }
      ],
      "stateMutability": "view",
      "type": "function"
    },
    {
      "inputs": [
        {
          "internalType": "contract DaoRegistry",
          "name": "dao",
          "type": "address"
        },
        {
          "internalType": "bytes32",
          "name": "proposalId",
          "type": "bytes32"
        },
        {
          "components": [
            {
              "internalType": "uint32",
              "name": "choice",
              "type": "uint32"
            },
            {
              "internalType": "uint64",
              "name": "index",
              "type": "uint64"
            },
            {
              "internalType": "uint64",
              "name": "timestamp",
              "type": "uint64"
            },
            {
              "internalType": "uint88",
              "name": "nbNo",
              "type": "uint88"
            },
            {
              "internalType": "uint88",
              "name": "nbYes",
              "type": "uint88"
            },
            {
              "internalType": "bytes",
              "name": "sig",
              "type": "bytes"
            },
            {
              "internalType": "bytes32",
              "name": "proposalId",
              "type": "bytes32"
            },
            {
              "internalType": "bytes32[]",
              "name": "proof",
              "type": "bytes32[]"
            }
          ],
          "internalType": "struct OffchainVotingContract.VoteResultNode",
          "name": "nodePrevious",
          "type": "tuple"
        },
        {
          "components": [
            {
              "internalType": "uint32",
              "name": "choice",
              "type": "uint32"
            },
            {
              "internalType": "uint64",
              "name": "index",
              "type": "uint64"
            },
            {
              "internalType": "uint64",
              "name": "timestamp",
              "type": "uint64"
            },
            {
              "internalType": "uint88",
              "name": "nbNo",
              "type": "uint88"
            },
            {
              "internalType": "uint88",
              "name": "nbYes",
              "type": "uint88"
            },
            {
              "internalType": "bytes",
              "name": "sig",
              "type": "bytes"
            },
            {
              "internalType": "bytes32",
              "name": "proposalId",
              "type": "bytes32"
            },
            {
              "internalType": "bytes32[]",
              "name": "proof",
              "type": "bytes32[]"
            }
          ],
          "internalType": "struct OffchainVotingContract.VoteResultNode",
          "name": "nodeCurrent",
          "type": "tuple"
        }
      ],
      "name": "challengeBadStep",
      "outputs": [],
      "stateMutability": "nonpayable",
      "type": "function"
    },
    {
      "inputs": [
        {
          "internalType": "contract DaoRegistry",
          "name": "dao",
          "type": "address"
        },
        {
          "internalType": "bytes32",
          "name": "proposalId",
          "type": "bytes32"
        }
      ],
      "name": "requestFallback",
      "outputs": [],
      "stateMutability": "nonpayable",
      "type": "function"
    },
    {
      "inputs": [
        {
          "internalType": "contract DaoRegistry",
          "name": "dao",
          "type": "address"
        },
        {
          "internalType": "bytes32",
          "name": "proposalId",
          "type": "bytes32"
        },
        {
          "internalType": "address",
          "name": "sponsoredBy",
          "type": "address"
        }
      ],
      "name": "sponsorChallengeProposal",
      "outputs": [],
      "stateMutability": "nonpayable",
      "type": "function"
    },
    {
      "inputs": [
        {
          "internalType": "contract DaoRegistry",
          "name": "dao",
          "type": "address"
        },
        {
          "internalType": "bytes32",
          "name": "proposalId",
          "type": "bytes32"
        }
      ],
      "name": "processChallengeProposal",
      "outputs": [],
      "stateMutability": "nonpayable",
      "type": "function"
    }
  ],
  "bytecode": "0x60806040523480156200001157600080fd5b5060405162005c5d38038062005c5d833981016040819052620000349162000156565b60006200004062000152565b600080546001600160a01b0319166001600160a01b0383169081178255604051929350917f8be0079c531659141344cd1fd0a4f28419497f9722a3daafe3b4186f6b6457e0908290a3506001600160a01b038416620000bc5760405162461bcd60e51b8152600401620000b390620001f4565b60405180910390fd5b6001600160a01b038316620000e55760405162461bcd60e51b8152600401620000b3906200021d565b6001600160a01b0382166200010e5760405162461bcd60e51b8152600401620000b390620001bd565b50600380546001600160a01b039485166001600160a01b03199182161790915560018054938516938216939093179092556002805491909316911617905562000261565b3390565b600080600080608085870312156200016c578384fd5b8451620001798162000248565b60208601519094506200018c8162000248565b60408601519093506200019f8162000248565b6060860151909250620001b28162000248565b939692955090935050565b60208082526013908201527f68616e646c6520626164207265706f7274657200000000000000000000000000604082015260600190565b6020808252600f908201526e1d9bdd1a5b99c818dbdb9d1c9858dd608a1b604082015260600190565b6020808252601190820152701cdb985c1cda1bdd081c1c9bdc1bdcd85b607a1b604082015260600190565b6001600160a01b03811681146200025e57600080fd5b50565b6159ec80620002716000396000f3fe608060405234801561001057600080fd5b50600436106102ad5760003560e01c80637a307d2e1161017b578063c8ebc334116100d8578063ef6a24991161008c578063f72044d111610071578063f72044d114610562578063f83ae4bb14610575578063fc2580311461057d576102ad565b8063ef6a24991461053c578063f2fde38b1461054f576102ad565b8063cab730ab116100bd578063cab730ab14610519578063e1b11da41461052c578063ee3e7a2814610534576102ad565b8063c8ebc334146104f3578063ca0f463314610506576102ad565b8063966917d01161012f578063a4d08a9c11610114578063a4d08a9c146104d0578063b244a41d146104d8578063c7977be7146104eb576102ad565b8063966917d0146104aa5780639cf2fa27146104bd576102ad565b80638da5cb5b116101605780638da5cb5b1461046f5780638ecf772014610477578063944fe52114610497576102ad565b80637a307d2e146104475780637fd3cd8b14610467576102ad565b80632f9abe8d116102295780635d5b4522116101dd578063715018a6116101c2578063715018a61461040c57806376225e73146104145780637795526314610434576102ad565b80635d5b4522146103e65780636a71d09b146103f9576102ad565b80634a87400b1161020e5780634a87400b146103b857806355ace0bb146103cb5780635bae28f5146103de576102ad565b80632f9abe8d1461039d5780633038719d146103b0576102ad565b80631bb791cd116102805780631f86f5b3116102655780631f86f5b31461035457806329ae0f1a146103695780632b0974d01461038a576102ad565b80631bb791cd146103185780631db5ade81461032b576102ad565b80630a477c7f146102b25780630c8f28f9146102c757806319045a25146102e55780631a25c910146102f8575b600080fd5b6102c56102c03660046146e7565b610590565b005b6102cf61061d565b6040516102dc9190614a47565b60405180910390f35b6102cf6102f33660046143a9565b61062c565b61030b6103063660046147a5565b610641565b6040516102dc9190614abd565b6102c5610326366004614539565b610681565b61033e61033936600461431d565b61072f565b6040516102dc9a9998979695949392919061547b565b61035c61079a565b6040516102dc9190614d7c565b61037c610377366004614539565b6107d1565b6040516102dc929190615464565b6102c561039836600461469a565b610802565b61030b6103ab36600461491c565b610cd6565b61030b610d69565b61030b6103c6366004614426565b610d6e565b6102c56103d9366004614728565b610ebf565b61030b611153565b6102c56103f4366004614539565b611195565b61030b6104073660046144d9565b611249565b6102c56112ff565b610427610422366004614539565b6113a0565b6040516102dc9190614d68565b6102c561044236600461454b565b6116f9565b61045a61045536600461458c565b6117a3565b6040516102dc9190614d4e565b61035c611b11565b6102cf611b4a565b61048a6104853660046143ee565b611b59565b6040516102dc9190614ab2565b6102c56104a53660046147ec565b611dce565b6102cf6104b8366004614466565b612114565b61030b6104cb36600461454b565b6121e3565b61035c61227e565b61030b6104e6366004614970565b6122b7565b61030b612310565b6102c56105013660046146e7565b612339565b61048a6105143660046142e5565b612548565b6102c5610527366004614539565b612556565b61035c6126b1565b61030b6126cd565b61048a61054a3660046142e5565b612713565b6102c561055d3660046142e5565b612757565b6102c5610570366004614613565b61282f565b61035c612d6e565b61048a61058b36600461494f565b612d8a565b6001600160a01b03831660009081526005602090815260408083208584529091528120906105d085856000856002015486600001548760060154896117a3565b6004811115610608577f4e487b7100000000000000000000000000000000000000000000000000000000600052602160045260246000fd5b14610617576106178484612da7565b50505050565b6003546001600160a01b031681565b6000610638838361318b565b90505b92915050565b600061064e8585856121e3565b82604051602001610660929190614a11565b6040516020818303038152906040528051906020012090505b949350505050565b6002546001600160a01b031633146106b45760405162461bcd60e51b81526004016106ab90615160565b60405180910390fd5b6040517f30490e910000000000000000000000000000000000000000000000000000000081526001600160a01b038316906330490e91906106f9908490600401614abd565b600060405180830381600087803b15801561071357600080fd5b505af1158015610727573d6000803e3d6000fd5b505050505050565b6005602081815260009384526040808520909152918352912080546001820154600283015460038401546004850154958501546006860154600787015460099097015495976001600160a01b039095169693959294939192909160ff8082169261010090920416908a565b60408051808201909152601681527f4f6666636861696e566f74696e67436f6e747261637400000000000000000000602082015290565b6001600160a01b03918216600090815260046020908152604080832093835292905220600181015490549092911690565b826000816001600160a01b031663c19d93fb6040518163ffffffff1660e01b815260040160206040518083038186803b15801561083e57600080fd5b505afa158015610852573d6000803e3d6000fd5b505050506040513d601f19601f820116820180604052508101906108769190614826565b60018111156108ae577f4e487b7100000000000000000000000000000000000000000000000000000000600052602160045260246000fd5b1480156108bf57506108bf816131cc565b8061095a57506040517f68c18beb0000000000000000000000000000000000000000000000000000000081526001600160a01b038216906368c18beb9061090a903390600401614a47565b60206040518083038186803b15801561092257600080fd5b505afa158015610936573d6000803e3d6000fd5b505050506040513d601f19601f8201168201806040525081019061095a9190614375565b6109765760405162461bcd60e51b81526004016106ab90615388565b60008280602001905181019061098c9190614864565b90506000806109a2836040015160a00151613376565b91509150816109c35760405162461bcd60e51b81526004016106ab906153bf565b6040517f593e96b60000000000000000000000000000000000000000000000000000000081526000906001600160a01b0389169063593e96b690610a2b907fea0ca03c7adbe41dc655fec28a9209dc8e6e042f3d991a67765ba285b9cf73a090600401614abd565b60206040518083038186803b158015610a4357600080fd5b505afa158015610a57573d6000803e3d6000fd5b505050506040513d601f19601f82011682018060405250810190610a7b9190614301565b6001546040517f0a48423c0000000000000000000000000000000000000000000000000000000081529192506000916001600160a01b0390911690630a48423c90610ace908c9033908a90600401614b86565b60206040518083038186803b158015610ae657600080fd5b505afa158015610afa573d6000803e3d6000fd5b505050506040513d601f19601f82011682018060405250810190610b1e9190614391565b90506000610b3082876060015161318b565b905060008a6001600160a01b031663c89bb8ba836040518263ffffffff1660e01b8152600401610b609190614a47565b60206040518083038186803b158015610b7857600080fd5b505afa158015610b8c573d6000803e3d6000fd5b505050506040513d601f19601f82011682018060405250810190610bb09190614301565b90506000846001600160a01b031663f7888aec83620ff1ce6040518363ffffffff1660e01b8152600401610be5929190614a5b565b60206040518083038186803b158015610bfd57600080fd5b505afa158015610c11573d6000803e3d6000fd5b505050506040513d601f19601f82011682018060405250810190610c359190614301565b6001600160a01b031611610c5b5760405162461bcd60e51b81526004016106ab906153f6565b43851115610c7b5760405162461bcd60e51b81526004016106ab90615297565b60008511610c9b5760405162461bcd60e51b81526004016106ab90615129565b505050506001600160a01b03969096166000908152600560208181526040808420988452979052959020429581019590955550505091905550565b600060405180608001604052806060815260200161595760609139604051602001610d0191906149f5565b60405160208183030381529060405280519060200120826040015183608001518460600151856020015186600001518760c00151604051602001610d4b9796959493929190614b19565b6040516020818303038152906040528051906020012090505b919050565b600281565b6001546040517f591e23710000000000000000000000000000000000000000000000000000000081526000916001600160a01b03169063591e237190610dba9087908790600401614a5b565b60206040518083038186803b158015610dd257600080fd5b505afa158015610de6573d6000803e3d6000fd5b505050506040513d601f19601f82011682018060405250810190610e0a9190614391565b6040518060400160405280601581526020017f4d657373616765286279746573333220726f6f74290000000000000000000000815250604051602001610e5091906149f5565b6040516020818303038152906040528051906020012083604051602001610e789291906149e7565b60405160208183030381529060405280519060200120604051602001610e9f929190614a11565b6040516020818303038152906040528051906020012090505b9392505050565b6001600160a01b0384166000818152600560209081526040808320878452909152808220600281015491517f32ed5b120000000000000000000000000000000000000000000000000000000081529093919291906332ed5b1290610f27908990600401614abd565b604080518083038186803b158015610f3e57600080fd5b505afa158015610f52573d6000803e3d6000fd5b505050506040513d601f19601f82011682018060405250810190610f769190614348565b50905081610f965760405162461bcd60e51b81526004016106ab90614f36565b6000610fa3888387611249565b90506000610fb2898489611249565b9050610fc38660e0015185846134b2565b610fdf5760405162461bcd60e51b81526004016106ab90615038565b610fee8760e0015185836134b2565b61100a5760405162461bcd60e51b81526004016106ab906152f4565b602087015161101a90600161558e565b67ffffffffffffffff16866020015167ffffffffffffffff16146110505760405162461bcd60e51b81526004016106ab90615001565b6040517f32ed5b120000000000000000000000000000000000000000000000000000000081526000906001600160a01b038b16906332ed5b1290611098908c90600401614abd565b604080518083038186803b1580156110af57600080fd5b505afa1580156110c3573d6000803e3d6000fd5b505050506040513d601f19601f820116820180604052508101906110e79190614348565b509050600060405180606001604052808a608001516affffffffffffffffffffff1681526020018a606001516affffffffffffffffffffff1681526020018b81525090506111378b838a84613586565b15611146576111468b8b612da7565b5050505050505050505050565b6040518060800160405280606081526020016159576060913960405160200161117c91906149f5565b6040516020818303038152906040528051906020012081565b61119d613992565b6001600160a01b03166111ae611b4a565b6001600160a01b0316146111d45760405162461bcd60e51b81526004016106ab9061522b565b6001600160a01b0382166000908152600560208181526040808420858552909152909120908101546112185760405162461bcd60e51b81526004016106ab906150f2565b60070180547fffffffffffffffffffffffffffffffffffffffffffffffffffffffffffff00ff166101001790555050565b6001546040517f591e23710000000000000000000000000000000000000000000000000000000081526000916001600160a01b03169063591e2371906112959087908790600401614a5b565b60206040518083038186803b1580156112ad57600080fd5b505afa1580156112c1573d6000803e3d6000fd5b505050506040513d601f19601f820116820180604052508101906112e59190614391565b6112ee83610cd6565b604051602001610e9f929190614a11565b611307613992565b6001600160a01b0316611318611b4a565b6001600160a01b03161461133e5760405162461bcd60e51b81526004016106ab9061522b565b600080546040516001600160a01b03909116907f8be0079c531659141344cd1fd0a4f28419497f9722a3daafe3b4186f6b6457e0908390a3600080547fffffffffffffffffffffffff0000000000000000000000000000000000000000169055565b6001600160a01b03821660009081526005602081815260408084208585529091528220908101546113d557600091505061063b565b6007810154610100900460ff16156113f157600391505061063b565b6113ff848260090154613996565b156114a7576003546040517f76225e730000000000000000000000000000000000000000000000000000000081526001600160a01b03909116906376225e739061144f9087908790600401614a99565b60206040518083038186803b15801561146757600080fd5b505afa15801561147b573d6000803e3d6000fd5b505050506040513d601f19601f8201168201806040525081019061149f9190614845565b91505061063b565b600781015460ff16156114be57600491505061063b565b6040517f9283ae3a0000000000000000000000000000000000000000000000000000000081526000906001600160a01b03861690639283ae3a90611526907f5747c91a28cbec9252486e322546a68a0eb195f6f01518b0442207980ad3884c90600401614abd565b60206040518083038186803b15801561153e57600080fd5b505afa158015611552573d6000803e3d6000fd5b505050506040513d601f19601f820116820180604052508101906115769190614391565b90508082600501546115889190615576565b42101561159a5760049250505061063b565b6040517f9283ae3a0000000000000000000000000000000000000000000000000000000081526000906001600160a01b03871690639283ae3a90611602907f2324ddf5530d2241228494f4f2da5f930e5133943b8dd5669a10fe763085bf8c90600401614abd565b60206040518083038186803b15801561161a57600080fd5b505afa15801561162e573d6000803e3d6000fd5b505050506040513d601f19601f820116820180604052508101906116529190614391565b9050826006015460001480156116815750818184600501546116749190615576565b61167e9190615576565b42105b15611692576005935050505061063b565b8083600601546116a29190615576565b4210156116b5576005935050505061063b565b8260040154836003015411156116d1576002935050505061063b565b8260040154836003015410156116ed576003935050505061063b565b50600195945050505050565b6002546001600160a01b031633146117235760405162461bcd60e51b81526004016106ab90615160565b6040517f896ae9ba0000000000000000000000000000000000000000000000000000000081526001600160a01b0384169063896ae9ba9061176c90859085903090600401614ac6565b600060405180830381600087803b15801561178657600080fd5b505af115801561179a573d6000803e3d6000fd5b50505050505050565b600080886001600160a01b03166332ed5b12896040518263ffffffff1660e01b81526004016117d29190614abd565b604080518083038186803b1580156117e957600080fd5b505afa1580156117fd573d6000803e3d6000fd5b505050506040513d601f19601f820116820180604052508101906118219190614348565b509050856118415760405162461bcd60e51b81526004016106ab90614f36565b600061184e8a8386611249565b905061185f8460e0015188836134b2565b61187b5760405162461bcd60e51b81526004016106ab90614dc6565b60208401516040517f9029444a0000000000000000000000000000000000000000000000000000000081526000916001600160a01b038d1691639029444a916118c6916004016154cd565b60206040518083038186803b1580156118de57600080fd5b505afa1580156118f2573d6000803e3d6000fd5b505050506040513d601f19601f820116820180604052508101906119169190614301565b905060008b6001600160a01b0316634a19d91e838a6040518363ffffffff1660e01b8152600401611948929190614a99565b60206040518083038186803b15801561196057600080fd5b505afa158015611974573d6000803e3d6000fd5b505050506040513d601f19601f820116820180604052508101906119989190614301565b905060008c6001600160a01b03166332ed5b128d6040518263ffffffff1660e01b81526004016119c89190614abd565b604080518083038186803b1580156119df57600080fd5b505afa1580156119f3573d6000803e3d6000fd5b505050506040513d601f19601f82011682018060405250810190611a179190614348565b5090508660a00151516000148015611a355750865163ffffffff1615155b80611a5e575060008760a0015151118015611a5e57508651611a5c9063ffffffff16613add565b155b15611a7157600295505050505050611b06565b8b8760c0015114611a8a57600195505050505050611b06565b8a158015611aa5575087876040015167ffffffffffffffff16115b15611ab857600395505050505050611b06565b60008760a0015151118015611ae95750611ae78d82848a604001518b60c001518c600001518d60a00151613afd565b155b15611afc57600495505050505050611b06565b6000955050505050505b979650505050505050565b6040518060400160405280601681526020017f4f6666636861696e566f74696e67436f6e74726163740000000000000000000081525081565b6000546001600160a01b031690565b600080836001600160a01b031663fefbd8757fea0ca03c7adbe41dc655fec28a9209dc8e6e042f3d991a67765ba285b9cf73a06040518263ffffffff1660e01b8152600401611ba89190614abd565b60206040518083038186803b158015611bc057600080fd5b505afa158015611bd4573d6000803e3d6000fd5b505050506040513d601f19601f82011682018060405250810190611bf89190614301565b90506001600160a01b03811615611d39576040517fc89bb8ba0000000000000000000000000000000000000000000000000000000081526000906001600160a01b0386169063c89bb8ba90611c51908790600401614a47565b60206040518083038186803b158015611c6957600080fd5b505afa158015611c7d573d6000803e3d6000fd5b505050506040513d601f19601f82011682018060405250810190611ca19190614301565b90506000826001600160a01b031663f7888aec83620ff1ce6040518363ffffffff1660e01b8152600401611cd6929190614a5b565b60206040518083038186803b158015611cee57600080fd5b505afa158015611d02573d6000803e3d6000fd5b505050506040513d601f19601f82011682018060405250810190611d269190614301565b6001600160a01b0316119250505061063b565b6040517fa230c5240000000000000000000000000000000000000000000000000000000081526001600160a01b0385169063a230c52490611d7e908690600401614a47565b60206040518083038186803b158015611d9657600080fd5b505afa158015611daa573d6000803e3d6000fd5b505050506040513d601f19601f820116820180604052508101906106799190614375565b836000816001600160a01b031663c19d93fb6040518163ffffffff1660e01b815260040160206040518083038186803b158015611e0a57600080fd5b505afa158015611e1e573d6000803e3d6000fd5b505050506040513d601f19601f82011682018060405250810190611e429190614826565b6001811115611e7a577f4e487b7100000000000000000000000000000000000000000000000000000000600052602160045260246000fd5b148015611e8b5750611e8b816131cc565b80611f2657506040517f68c18beb0000000000000000000000000000000000000000000000000000000081526001600160a01b038216906368c18beb90611ed6903390600401614a47565b60206040518083038186803b158015611eee57600080fd5b505afa158015611f02573d6000803e3d6000fd5b505050506040513d601f19601f82011682018060405250810190611f269190614375565b611f425760405162461bcd60e51b81526004016106ab90615388565b6040517fda0f6c700000000000000000000000000000000000000000000000000000000081526001600160a01b0386169063da0f6c7090611fa9907f5747c91a28cbec9252486e322546a68a0eb195f6f01518b0442207980ad3884c9088906004016149e7565b600060405180830381600087803b158015611fc357600080fd5b505af1158015611fd7573d6000803e3d6000fd5b50506040517fda0f6c700000000000000000000000000000000000000000000000000000000081526001600160a01b038816925063da0f6c709150612042907f2324ddf5530d2241228494f4f2da5f930e5133943b8dd5669a10fe763085bf8c9087906004016149e7565b600060405180830381600087803b15801561205c57600080fd5b505af1158015612070573d6000803e3d6000fd5b50506040517fda0f6c700000000000000000000000000000000000000000000000000000000081526001600160a01b038816925063da0f6c7091506120db907f7781b80638de1bad375fa02f17b809bb0037ecfaca3f762ca34d55e5b29687329086906004016149e7565b600060405180830381600087803b1580156120f557600080fd5b505af1158015612109573d6000803e3d6000fd5b505050505050505050565b6000808380602001905181019061212b9190614864565b6001546040517f0a48423c0000000000000000000000000000000000000000000000000000000081529192506121d9916001600160a01b0390911690630a48423c9061217f908a908a908790600401614b86565b60206040518083038186803b15801561219757600080fd5b505afa1580156121ab573d6000803e3d6000fd5b505050506040513d601f19601f820116820180604052508101906121cf9190614391565b826060015161318b565b9695505050505050565b60006040518060a00160405280606381526020016158f46063913960405160200161220e91906149f5565b604051602081830303815290604052805190602001207fe2ffb2e2c8bf0b9b360ecefb7de0735865e605d6ba933b6c7e12cee0e178c8bf7f13600b294191fc92924bb3ce4b969c1e7e2bab8f4c93c3fc6d0a51733df3c060858786604051602001610e9f96959493929190614ae5565b6040518060400160405280601581526020017f4d657373616765286279746573333220726f6f7429000000000000000000000081525081565b60008115156122c68585612d8a565b1515146123095781156122ef576122de83600261563a565b6122e89085615576565b9050610eb8565b6122fa83600261563a565b6122e8908561575e565b610eb8565b5082610eb8565b6040518060a00160405280606381526020016158f46063913960405160200161117c91906149f5565b602081015167ffffffffffffffff16156123655760405162461bcd60e51b81526004016106ab90615260565b6001600160a01b038316600081815260056020908152604080832086845290915280822090517f32ed5b120000000000000000000000000000000000000000000000000000000081529092906332ed5b12906123c5908790600401614abd565b604080518083038186803b1580156123dc57600080fd5b505afa1580156123f0573d6000803e3d6000fd5b505050506040513d601f19601f820116820180604052508101906124149190614348565b5060028301549091506124395760405162461bcd60e51b81526004016106ab90614f36565b6000612446868386611249565b905061245b8460e001518460020154836134b2565b6124775760405162461bcd60e51b81526004016106ab90614dc6565b6040517f32ed5b120000000000000000000000000000000000000000000000000000000081526000906001600160a01b038816906332ed5b12906124bf908990600401614abd565b604080518083038186803b1580156124d657600080fd5b505afa1580156124ea573d6000803e3d6000fd5b505050506040513d601f19601f8201168201806040525081019061250e9190614348565b509050612539878287604051806060016040528060008152602001600081526020018b815250613586565b1561179a5761179a8787612da7565b6001600160a01b0316151590565b816125618133613bfa565b6001600160a01b0383166000908152600560209081526040808320858452825280832033845260080190915290205460ff16156125b05760405162461bcd60e51b81526004016106ab906151ce565b6001600160a01b038316600090815260056020908152604080832085845280835281842033855260088101845291842080547fffffffffffffffffffffffffffffffffffffffffffffffffffffffffffffff001660019081179091558685529252600901805491929091612625908490615576565b90915550506001600160a01b038316600090815260056020908152604080832085845290915290206009015461265c908490613996565b156126ac576003546040517f2b0974d00000000000000000000000000000000000000000000000000000000081526001600160a01b0390911690632b0974d09061176c9086908690600401614d26565b505050565b6040518060a00160405280606381526020016158f46063913981565b6040518060400160405280601581526020017f4d657373616765286279746573333220726f6f7429000000000000000000000081525060405160200161117c91906149f5565b60006001600160a01b03821661dead1480159061273b57506001600160a01b03821661babe14155b801561063b57506001600160a01b038216614bec141592915050565b61275f613992565b6001600160a01b0316612770611b4a565b6001600160a01b0316146127965760405162461bcd60e51b81526004016106ab9061522b565b6001600160a01b0381166127bc5760405162461bcd60e51b81526004016106ab90614ea2565b600080546040516001600160a01b03808516939216917f8be0079c531659141344cd1fd0a4f28419497f9722a3daafe3b4186f6b6457e091a3600080547fffffffffffffffffffffffff0000000000000000000000000000000000000000166001600160a01b0392909216919091179055565b6001600160a01b0385166000908152600560209081526040808320878452909152902080546128705760405162461bcd60e51b81526004016106ab90614eff565b600281015415806128855750600781015460ff165b156128d4576128b8868285608001516affffffffffffffffffffff1686606001516affffffffffffffffffffff16613c24565b6128d45760405162461bcd60e51b81526004016106ab90615351565b6040517f32ed5b120000000000000000000000000000000000000000000000000000000081526000906001600160a01b038816906332ed5b129061291c908990600401614abd565b604080518083038186803b15801561293357600080fd5b505afa158015612947573d6000803e3d6000fd5b505050506040513d601f19601f8201168201806040525081019061296b9190614348565b509050600061298461297e898489610d6e565b8561318b565b90506000886001600160a01b031663c89bb8ba836040518263ffffffff1660e01b81526004016129b49190614a47565b60206040518083038186803b1580156129cc57600080fd5b505afa1580156129e0573d6000803e3d6000fd5b505050506040513d601f19601f82011682018060405250810190612a049190614301565b9050612a108982611b59565b612a2c5760405162461bcd60e51b81526004016106ab90614e34565b6040517f593e96b60000000000000000000000000000000000000000000000000000000081526000906001600160a01b038b169063593e96b690612a94907fea0ca03c7adbe41dc655fec28a9209dc8e6e042f3d991a67765ba285b9cf73a090600401614abd565b60206040518083038186803b158015612aac57600080fd5b505afa158015612ac0573d6000803e3d6000fd5b505050506040513d601f19601f82011682018060405250810190612ae49190614301565b85546040517ffaaf38b30000000000000000000000000000000000000000000000000000000081529192506000916001600160a01b0384169163faaf38b391612b3a9161babe9163decafbad9190600401614a75565b60206040518083038186803b158015612b5257600080fd5b505afa158015612b66573d6000803e3d6000fd5b505050506040513d601f19601f82011682018060405250810190612b8a9190614391565b602089015190915067ffffffffffffffff16612ba760018361575e565b14612bc45760405162461bcd60e51b81526004016106ab9061542d565b6000612bde8c8c60018d8b600001548c600601548f6117a3565b6004811115612c16577f4e487b7100000000000000000000000000000000000000000000000000000000600052602160045260246000fd5b14612c335760405162461bcd60e51b81526004016106ab90614f6d565b87606001518860800151612c4791906155ba565b6affffffffffffffffffffff1686600401548760030154612c689190615576565b10612c855760405162461bcd60e51b81526004016106ab90614e6b565b60068601541580612cc8575087608001516affffffffffffffffffffff1688606001516affffffffffffffffffffff161115158660030154876004015411151514155b15612cd4574260068701555b505060608601516affffffffffffffffffffff9081166004860155608090960151909516600384015550506002810193909355506001820180547fffffffffffffffffffffffff0000000000000000000000000000000000000000166001600160a01b0390921691909117905560070180547fffffffffffffffffffffffffffffffffffffffffffffffffffffffffffffff001690555050565b6040518060800160405280606081526020016159576060913981565b6000612d9d600260ff841685901c6157fd565b6001149392505050565b6040517f593e96b60000000000000000000000000000000000000000000000000000000081526000906001600160a01b0384169063593e96b690612e0f907fea0ca03c7adbe41dc655fec28a9209dc8e6e042f3d991a67765ba285b9cf73a090600401614abd565b60206040518083038186803b158015612e2757600080fd5b505afa158015612e3b573d6000803e3d6000fd5b505050506040513d601f19601f82011682018060405250810190612e5f9190614301565b6001600160a01b03848116600090815260056020908152604080832087845282528083206007810180547fffffffffffffffffffffffffffffffffffffffffffffffffffffffffffffff001660019081179091558101546002909101549151959650909316939192612ed3928792016149e7565b604080517fffffffffffffffffffffffffffffffffffffffffffffffffffffffffffffffe08184030181529082905280516020909101207fb73dc38900000000000000000000000000000000000000000000000000000000825291506001600160a01b0386169063b73dc38990612f4e908490600401614abd565b600060405180830381600087803b158015612f6857600080fd5b505af1158015612f7c573d6000803e3d6000fd5b50506040517ff7888aec000000000000000000000000000000000000000000000000000000008152600092506001600160a01b038616915063f7888aec90612fcd908690620ff1ce90600401614a5b565b60206040518083038186803b158015612fe557600080fd5b505afa158015612ff9573d6000803e3d6000fd5b505050506040513d601f19601f8201168201806040525081019061301d9190614301565b6040805180820182526001600160a01b03868116825292831660208083018281528b8616600090815260048084528682208a8352909352859020935184547fffffffffffffffffffffffff0000000000000000000000000000000000000000169087161784555160019093019290925591517fe3a05cc10000000000000000000000000000000000000000000000000000000081529193509186169163e3a05cc1916130d2918791620ff1ce91879101614a75565b600060405180830381600087803b1580156130ec57600080fd5b505af1158015613100573d6000803e3d6000fd5b50506040517fc57d5fe90000000000000000000000000000000000000000000000000000000081526001600160a01b038716925063c57d5fe9915061315190869063b105f00d908690600401614a75565b600060405180830381600087803b15801561316b57600080fd5b505af115801561317f573d6000803e3d6000fd5b50505050505050505050565b600081516041146131ae5760405162461bcd60e51b81526004016106ab90614dfd565b60208201516040830151606084015160001a6121d986828585613ed1565b6000816001600160a01b031663c67143666040518163ffffffff1660e01b815260040160206040518083038186803b15801561320757600080fd5b505afa15801561321b573d6000803e3d6000fd5b505050506040513d601f19601f8201168201806040525081019061323f9190614391565b15806132db57506040517fa230c5240000000000000000000000000000000000000000000000000000000081526001600160a01b0383169063a230c5249061328b903390600401614a47565b60206040518083038186803b1580156132a357600080fd5b505afa1580156132b7573d6000803e3d6000fd5b505050506040513d601f19601f820116820180604052508101906132db9190614375565b8061063b57506040517f68c18beb0000000000000000000000000000000000000000000000000000000081526001600160a01b038316906368c18beb90613326903390600401614a47565b60206040518083038186803b15801561333e57600080fd5b505afa158015613352573d6000803e3d6000fd5b505050506040513d601f19601f8201168201806040525081019061063b9190614375565b60008082815b81518110156134ab5760308282815181106133c0577f4e487b7100000000000000000000000000000000000000000000000000000000600052603260045260246000fd5b016020015160f81c108015906134175750603982828151811061340c577f4e487b7100000000000000000000000000000000000000000000000000000000600052603260045260246000fd5b016020015160f81c11155b1561348c576030828281518110613457577f4e487b7100000000000000000000000000000000000000000000000000000000600052603260045260246000fd5b0160200151613469919060f81c615775565b60ff1661347784600a615721565b6134819190615576565b925060019350613499565b60009250600093506134ab565b806134a3816157c4565b91505061337c565b5050915091565b600081815b855181101561357b5760008682815181106134fb577f4e487b7100000000000000000000000000000000000000000000000000000000600052603260045260246000fd5b6020026020010151905080831161353c57828160405160200161351f9291906149e7565b604051602081830303815290604052805190602001209250613568565b808360405160200161354f9291906149e7565b6040516020818303038152906040528051906020012092505b5080613573816157c4565b9150506134b7565b509092149392505050565b6001600160a01b038416600081815260056020908152604080832085820151845282528083209186015190517f9029444a00000000000000000000000000000000000000000000000000000000815292939192849291639029444a916135ef91906004016154cd565b60206040518083038186803b15801561360757600080fd5b505afa15801561361b573d6000803e3d6000fd5b505050506040513d601f19601f8201168201806040525081019061363f9190614301565b82546040517f4a19d91e0000000000000000000000000000000000000000000000000000000081529192506000916001600160a01b038a1691634a19d91e9161368c918691600401614a99565b60206040518083038186803b1580156136a457600080fd5b505afa1580156136b8573d6000803e3d6000fd5b505050506040513d601f19601f820116820180604052508101906136dc9190614301565b90506000886001600160a01b031663593e96b67fea0ca03c7adbe41dc655fec28a9209dc8e6e042f3d991a67765ba285b9cf73a06040518263ffffffff1660e01b815260040161372c9190614abd565b60206040518083038186803b15801561374457600080fd5b505afa158015613758573d6000803e3d6000fd5b505050506040513d601f19601f8201168201806040525081019061377c9190614301565b84546040517ffaaf38b30000000000000000000000000000000000000000000000000000000081529192506000916001600160a01b0384169163faaf38b3916137cf918891620ff1ce9190600401614a75565b60206040518083038186803b1580156137e757600080fd5b505afa1580156137fb573d6000803e3d6000fd5b505050506040513d601f19601f8201168201806040525081019061381f9190614391565b885190915063ffffffff166138825787608001516affffffffffffffffffffff1687600001511461385857600195505050505050610679565b87606001516affffffffffffffffffffff1687602001511461388257600195505050505050610679565b61389e8a8a858b604001518c60c0015160018e60a00151613afd565b156139025787608001516affffffffffffffffffffff168188600001516138c59190615576565b146138d857600195505050505050610679565b87606001516affffffffffffffffffffff1687602001511461390257600195505050505050610679565b61391e8a8a858b604001518c60c0015160028e60a00151613afd565b156139825787608001516affffffffffffffffffffff1687600001511461394d57600195505050505050610679565b87606001516affffffffffffffffffffff1681886020015161396f9190615576565b1461398257600195505050505050610679565b5060009998505050505050505050565b3390565b6040517f9283ae3a0000000000000000000000000000000000000000000000000000000081526000906001600160a01b03841690639283ae3a906139fe907f7781b80638de1bad375fa02f17b809bb0037ecfaca3f762ca34d55e5b296873290600401614abd565b60206040518083038186803b158015613a1657600080fd5b505afa158015613a2a573d6000803e3d6000fd5b505050506040513d601f19601f82011682018060405250810190613a4e9190614391565b836001600160a01b031663c67143666040518163ffffffff1660e01b815260040160206040518083038186803b158015613a8757600080fd5b505afa158015613a9b573d6000803e3d6000fd5b505050506040513d601f19601f82011682018060405250810190613abf9190614391565b613aca906064615721565b613ad491906155e0565b90911192915050565b6000808211801561063b5750613af560026001615576565b909110919050565b60015460408051808201825267ffffffffffffffff871681528151808301835263ffffffff86168152602081810188905282015290517fec6678b700000000000000000000000000000000000000000000000000000000815260009283926001600160a01b039091169163ec6678b791613b7d918d918d91600401614ce5565b60206040518083038186803b158015613b9557600080fd5b505afa158015613ba9573d6000803e3d6000fd5b505050506040513d601f19601f82011682018060405250810190613bcd9190614391565b9050866001600160a01b0316613be3828561318b565b6001600160a01b0316149998505050505050505050565b613c048282611b59565b613c205760405162461bcd60e51b81526004016106ab90615197565b5050565b6007830154600090610100900460ff1615613c4157506000610679565b6040517f593e96b60000000000000000000000000000000000000000000000000000000081526000906001600160a01b0387169063593e96b690613ca9907fea0ca03c7adbe41dc655fec28a9209dc8e6e042f3d991a67765ba285b9cf73a090600401614abd565b60206040518083038186803b158015613cc157600080fd5b505afa158015613cd5573d6000803e3d6000fd5b505050506040513d601f19601f82011682018060405250810190613cf99190614301565b85546040517ffaaf38b30000000000000000000000000000000000000000000000000000000081529192506000916001600160a01b0384169163faaf38b391613d4e9161babe91620ff1ce9190600401614a75565b60206040518083038186803b158015613d6657600080fd5b505afa158015613d7a573d6000803e3d6000fd5b505050506040513d601f19601f82011682018060405250810190613d9e9190614391565b9050600084613dad878461575e565b613db7919061575e565b9050600085871115613dd457613dcd868861575e565b9050613de1565b613dde878761575e565b90505b81811115613df6576001945050505050610679565b6040517f9283ae3a0000000000000000000000000000000000000000000000000000000081526000906001600160a01b038b1690639283ae3a90613e5e907f5747c91a28cbec9252486e322546a68a0eb195f6f01518b0442207980ad3884c90600401614abd565b60206040518083038186803b158015613e7657600080fd5b505afa158015613e8a573d6000803e3d6000fd5b505050506040513d601f19601f82011682018060405250810190613eae9190614391565b905042818a60050154613ec19190615576565b11159a9950505050505050505050565b60007f7fffffffffffffffffffffffffffffff5d576e7357a4501ddfe92f46681b20a0821115613f135760405162461bcd60e51b81526004016106ab90614fa4565b8360ff16601b1480613f2857508360ff16601c145b613f445760405162461bcd60e51b81526004016106ab90615095565b600060018686868660405160008152602001604052604051613f699493929190614b68565b6020604051602081039080840390855afa158015613f8b573d6000803e3d6000fd5b50506040517fffffffffffffffffffffffffffffffffffffffffffffffffffffffffffffffe001519150506001600160a01b038116613fdc5760405162461bcd60e51b81526004016106ab90614d8f565b95945050505050565b600082601f830112613ff5578081fd5b8135602061400a6140058361550c565b6154e2565b8281528181019085830183850287018401881015614026578586fd5b855b8581101561404457813584529284019290840190600101614028565b5090979650505050505050565b600082601f830112614061578081fd5b815160206140716140058361550c565b82815281810190858301855b8581101561404457614094898684518b01016140f2565b8452928401929084019060010161407d565b600082601f8301126140b6578081fd5b81356140c461400582615530565b8181528460208386010111156140d8578283fd5b816020850160208301379081016020019190915292915050565b600082601f830112614102578081fd5b815161411061400582615530565b818152846020838601011115614124578283fd5b610679826020830160208701615798565b600060c08284031215614146578081fd5b61415060c06154e2565b90508151815260208201516020820152604082015167ffffffffffffffff8082111561417b57600080fd5b61418785838601614051565b6040840152606084015160608401526080840151608084015260a08401519150808211156141b457600080fd5b506141c1848285016140f2565b60a08301525092915050565b60006101008083850312156141e0578182fd5b6141e9816154e2565b9150506141f58261429e565b8152614203602083016142b2565b6020820152614214604083016142b2565b6040820152614225606083016142ca565b6060820152614236608083016142ca565b608082015260a082013567ffffffffffffffff8082111561425657600080fd5b614262858386016140a6565b60a084015260c084013560c084015260e084013591508082111561428557600080fd5b5061429284828501613fe5565b60e08301525092915050565b803563ffffffff81168114610d6457600080fd5b803567ffffffffffffffff81168114610d6457600080fd5b80356affffffffffffffffffffff81168114610d6457600080fd5b6000602082840312156142f6578081fd5b8135610eb8816158cd565b600060208284031215614312578081fd5b8151610eb8816158cd565b6000806040838503121561432f578081fd5b823561433a816158cd565b946020939093013593505050565b6000806040838503121561435a578182fd5b8251614365816158cd565b6020939093015192949293505050565b600060208284031215614386578081fd5b8151610eb8816158e5565b6000602082840312156143a2578081fd5b5051919050565b600080604083850312156143bb578182fd5b82359150602083013567ffffffffffffffff8111156143d8578182fd5b6143e4858286016140a6565b9150509250929050565b60008060408385031215614400578182fd5b823561440b816158cd565b9150602083013561441b816158cd565b809150509250929050565b60008060006060848603121561443a578081fd5b8335614445816158cd565b92506020840135614455816158cd565b929592945050506040919091013590565b6000806000806080858703121561447b578182fd5b8435614486816158cd565b93506020850135614496816158cd565b9250604085013567ffffffffffffffff8111156144b1578283fd5b6144bd878288016140a6565b92505060608501356144ce816158cd565b939692955090935050565b6000806000606084860312156144ed578081fd5b83356144f8816158cd565b92506020840135614508816158cd565b9150604084013567ffffffffffffffff811115614523578182fd5b61452f868287016141cd565b9150509250925092565b6000806040838503121561432f578182fd5b60008060006060848603121561455f578081fd5b833561456a816158cd565b9250602084013591506040840135614581816158cd565b809150509250925092565b600080600080600080600060e0888a0312156145a6578485fd5b87356145b1816158cd565b96506020880135955060408801356145c8816158e5565b9450606088013593506080880135925060a0880135915060c088013567ffffffffffffffff8111156145f8578182fd5b6146048a828b016141cd565b91505092959891949750929550565b600080600080600060a0868803121561462a578283fd5b8535614635816158cd565b94506020860135935060408601359250606086013567ffffffffffffffff8082111561465f578283fd5b61466b89838a016141cd565b93506080880135915080821115614680578283fd5b5061468d888289016140a6565b9150509295509295909350565b6000806000606084860312156146ae578081fd5b83356146b9816158cd565b925060208401359150604084013567ffffffffffffffff8111156146db578182fd5b61452f868287016140a6565b6000806000606084860312156146fb578081fd5b8335614706816158cd565b925060208401359150604084013567ffffffffffffffff811115614523578182fd5b6000806000806080858703121561473d578182fd5b8435614748816158cd565b935060208501359250604085013567ffffffffffffffff8082111561476b578384fd5b614777888389016141cd565b9350606087013591508082111561478c578283fd5b50614799878288016141cd565b91505092959194509250565b600080600080608085870312156147ba578182fd5b84356147c5816158cd565b93506020850135925060408501356147dc816158cd565b9396929550929360600135925050565b60008060008060808587031215614801578182fd5b843561480c816158cd565b966020860135965060408601359560600135945092505050565b600060208284031215614837578081fd5b815160028110610eb8578182fd5b600060208284031215614856578081fd5b815160068110610eb8578182fd5b600060208284031215614875578081fd5b815167ffffffffffffffff8082111561488c578283fd5b908301906080828603121561489f578283fd5b6040516080810181811083821117156148ba576148ba61589e565b806040525082518152602083015160208201526040830151828111156148de578485fd5b6148ea87828601614135565b604083015250606083015182811115614901578485fd5b61490d878286016140f2565b60608301525095945050505050565b60006020828403121561492d578081fd5b813567ffffffffffffffff811115614943578182fd5b610679848285016141cd565b60008060408385031215614961578182fd5b50508035926020909101359150565b600080600060608486031215614984578081fd5b83359250602084013591506040840135614581816158e5565b600081518084526149b5816020860160208601615798565b601f017fffffffffffffffffffffffffffffffffffffffffffffffffffffffffffffffe0169290920160200192915050565b918252602082015260400190565b60008251614a07818460208701615798565b9190910192915050565b7f190100000000000000000000000000000000000000000000000000000000000081526002810192909252602282015260420190565b6001600160a01b0391909116815260200190565b6001600160a01b0392831681529116602082015260400190565b6001600160a01b039384168152919092166020820152604081019190915260600190565b6001600160a01b03929092168252602082015260400190565b901515815260200190565b90815260200190565b9283526001600160a01b03918216602084015216604082015260600190565b9586526020860194909452604085019290925260608401526001600160a01b0390811660808401521660a082015260c00190565b96875267ffffffffffffffff95861660208801526affffffffffffffffffffff9485166040880152929093166060860152909216608084015263ffffffff1660a083015260c082015260e00190565b93845260ff9290921660208401526040830152606082015260800190565b60006001600160a01b038086168352602081861681850152606060408501528451606085015280850151608085015260408501519150608060a08501526101a08401825160e086015281830151610100860152604083015160c06101208701528181518084526101c0935083880191508385820289010193508483019250865b81811015614c52577ffffffffffffffffffffffffffffffffffffffffffffffffffffffffffffffe40898603018352614c4085855161499d565b94509285019291850191600101614c06565b505050506060830151610140860152608083015161016086015260a083015192507fffffffffffffffffffffffffffffffffffffffffffffffffffffffffffffff2085820301610180860152614ca8818461499d565b9250505060608401517fffffffffffffffffffffffffffffffffffffffffffffffffffffffffffffffa08483030160c0850152611b06828261499d565b6001600160a01b039384168152919092166020808301919091528251604083015291820151805163ffffffff16606083015290910151608082015260a00190565b6001600160a01b03929092168252602082015260606040820181905260009082015260800190565b6020810160058310614d6257614d6261586f565b91905290565b6020810160068310614d6257614d6261586f565b600060208252610638602083018461499d565b60208082526018908201527f45434453413a20696e76616c6964207369676e61747572650000000000000000604082015260600190565b60208082526009908201527f70726f6f663a6261640000000000000000000000000000000000000000000000604082015260600190565b6020808252601f908201527f45434453413a20696e76616c6964207369676e6174757265206c656e67746800604082015260600190565b60208082526011908201527f6e6f7420616374697665206d656d626572000000000000000000000000000000604082015260600190565b60208082526015908201527f726573756c742077656967687420746f6f206c6f770000000000000000000000604082015260600190565b60208082526026908201527f4f776e61626c653a206e6577206f776e657220697320746865207a65726f206160408201527f6464726573730000000000000000000000000000000000000000000000000000606082015260800190565b60208082526010908201527f766f74653a6e6f74207374617274656400000000000000000000000000000000604082015260600190565b60208082526018908201527f6e6f20726573756c7420617661696c61626c6520796574210000000000000000604082015260600190565b6020808252600a908201527f62616420726573756c7400000000000000000000000000000000000000000000604082015260600190565b60208082526022908201527f45434453413a20696e76616c6964207369676e6174757265202773272076616c60408201527f7565000000000000000000000000000000000000000000000000000000000000606082015260800190565b6020808252601f908201527f74686f7365206e6f64657320617265206e6f7420636f6e736563757469766500604082015260600190565b60208082526030908201527f70726f6f6620636865636b20666f722063757272656e7420696e76616c69642060408201527f666f722063757272656e74206e6f646500000000000000000000000000000000606082015260800190565b60208082526022908201527f45434453413a20696e76616c6964207369676e6174757265202776272076616c60408201527f7565000000000000000000000000000000000000000000000000000000000000606082015260800190565b6020808252601c908201527f70726f706f73616c20686173206e6f7420737461727465642079657400000000604082015260600190565b60208082526018908201527f626c6f636b206e756d6265722063616e6e6f7420626520300000000000000000604082015260600190565b60208082526009908201527f6f6e6c793a686272610000000000000000000000000000000000000000000000604082015260600190565b6020808252600a908201527f6f6e6c794d656d62657200000000000000000000000000000000000000000000604082015260600190565b60208082526036908201527f746865206d656d6265722068617320616c726561647920766f74656420666f7260408201527f207468697320766f746520746f2066616c6c6261636b00000000000000000000606082015260800190565b6020808252818101527f4f776e61626c653a2063616c6c6572206973206e6f7420746865206f776e6572604082015260600190565b6020808252600f908201527f6f6e6c79206669727374206e6f64650000000000000000000000000000000000604082015260600190565b60208082526031908201527f736e617073686f7420626c6f636b206e756d6265722073686f756c64206e6f7460408201527f20626520696e2074686520667574757265000000000000000000000000000000606082015260800190565b60208082526032908201527f70726f6f6620636865636b20666f722070726576696f757320696e76616c696460408201527f20666f722070726576696f7573206e6f64650000000000000000000000000000606082015260800190565b6020808252601b908201527f766f74653a6e6f745265616479546f5375626d6974526573756c740000000000604082015260600190565b6020808252600b908201527f6f6e6c7941646170746572000000000000000000000000000000000000000000604082015260600190565b60208082526019908201527f736e617073686f7420636f6e76657273696f6e206572726f7200000000000000604082015260600190565b6020808252600e908201527f6e6f4163746976654d656d626572000000000000000000000000000000000000604082015260600190565b6020808252601b908201527f696e6465783a6d656d6265725f636f756e74206d69736d617463680000000000604082015260600190565b9182526001600160a01b0316602082015260400190565b998a526001600160a01b039890981660208a015260408901969096526060880194909452608087019290925260a086015260c0850152151560e084015215156101008301526101208201526101400190565b67ffffffffffffffff91909116815260200190565b60405181810167ffffffffffffffff811182821017156155045761550461589e565b604052919050565b600067ffffffffffffffff8211156155265761552661589e565b5060209081020190565b600067ffffffffffffffff82111561554a5761554a61589e565b50601f017fffffffffffffffffffffffffffffffffffffffffffffffffffffffffffffffe01660200190565b6000821982111561558957615589615811565b500190565b600067ffffffffffffffff8083168185168083038211156155b1576155b1615811565b01949350505050565b60006affffffffffffffffffffff8083168185168083038211156155b1576155b1615811565b6000826155ef576155ef615840565b500490565b80825b60018086116156065750615631565b81870482111561561857615618615811565b8086161561562557918102915b9490941c9380026155f7565b94509492505050565b60006106387fffffffffffffffffffffffffffffffffffffffffffffffffffffffffffffffff848460008261567157506001610eb8565b8161567e57506000610eb8565b8160018114615694576002811461569e576156cb565b6001915050610eb8565b60ff8411156156af576156af615811565b6001841b9150848211156156c5576156c5615811565b50610eb8565b5060208310610133831016604e8410600b84101617156156f9575081810a8381111561230457612304615811565b61570684848460016155f4565b80860482111561571857615718615811565b02949350505050565b6000817fffffffffffffffffffffffffffffffffffffffffffffffffffffffffffffffff048311821515161561575957615759615811565b500290565b60008282101561577057615770615811565b500390565b600060ff821660ff84168082101561578f5761578f615811565b90039392505050565b60005b838110156157b357818101518382015260200161579b565b838111156106175750506000910152565b60007fffffffffffffffffffffffffffffffffffffffffffffffffffffffffffffffff8214156157f6576157f6615811565b5060010190565b60008261580c5761580c615840565b500690565b7f4e487b7100000000000000000000000000000000000000000000000000000000600052601160045260246000fd5b7f4e487b7100000000000000000000000000000000000000000000000000000000600052601260045260246000fd5b7f4e487b7100000000000000000000000000000000000000000000000000000000600052602160045260246000fd5b7f4e487b7100000000000000000000000000000000000000000000000000000000600052604160045260246000fd5b6001600160a01b03811681146158e257600080fd5b50565b80151581146158e257600080fdfe454950373132446f6d61696e28737472696e67206e616d652c737472696e672076657273696f6e2c75696e7432353620636861696e49642c6164647265737320766572696679696e67436f6e74726163742c6164647265737320616374696f6e4964294d6573736167652875696e7436342074696d657374616d702c75696e743838206e625965732c75696e743838206e624e6f2c75696e74333220696e6465782c75696e7433322063686f6963652c627974657333322070726f706f73616c496429a26469706673582212200babb4a9cd9a868f527586e3c93122ec50e032879a6c89cfdd9f0e8bdd1d44b264736f6c63430008000033",
  "immutableReferences": {},
  "source": "pragma solidity ^0.8.0;\npragma experimental ABIEncoderV2;\n\n// SPDX-License-Identifier: MIT\n\nimport \"../../core/DaoRegistry.sol\";\nimport \"../../extensions/bank/Bank.sol\";\nimport \"../../core/DaoConstants.sol\";\nimport \"../../guards/MemberGuard.sol\";\nimport \"../../guards/AdapterGuard.sol\";\nimport \"../../utils/Signatures.sol\";\nimport \"../interfaces/IVoting.sol\";\nimport \"./Voting.sol\";\nimport \"./KickBadReporterAdapter.sol\";\nimport \"./SnapshotProposalContract.sol\";\nimport \"@openzeppelin/contracts/access/Ownable.sol\";\nimport \"@openzeppelin/contracts/utils/cryptography/MerkleProof.sol\";\n\n/**\nMIT License\n\nCopyright (c) 2020 Openlaw\n\nPermission is hereby granted, free of charge, to any person obtaining a copy\nof this software and associated documentation files (the \"Software\"), to deal\nin the Software without restriction, including without limitation the rights\nto use, copy, modify, merge, publish, distribute, sublicense, and/or sell\ncopies of the Software, and to permit persons to whom the Software is\nfurnished to do so, subject to the following conditions:\n\nThe above copyright notice and this permission notice shall be included in all\ncopies or substantial portions of the Software.\n\nTHE SOFTWARE IS PROVIDED \"AS IS\", WITHOUT WARRANTY OF ANY KIND, EXPRESS OR\nIMPLIED, INCLUDING BUT NOT LIMITED TO THE WARRANTIES OF MERCHANTABILITY,\nFITNESS FOR A PARTICULAR PURPOSE AND NONINFRINGEMENT. IN NO EVENT SHALL THE\nAUTHORS OR COPYRIGHT HOLDERS BE LIABLE FOR ANY CLAIM, DAMAGES OR OTHER\nLIABILITY, WHETHER IN AN ACTION OF CONTRACT, TORT OR OTHERWISE, ARISING FROM,\nOUT OF OR IN CONNECTION WITH THE SOFTWARE OR THE USE OR OTHER DEALINGS IN THE\nSOFTWARE.\n */\n\ncontract OffchainVotingContract is\n    IVoting,\n    DaoConstants,\n    MemberGuard,\n    AdapterGuard,\n    Signatures,\n    Ownable\n{\n    enum BadNodeError {\n        OK,\n        WRONG_PROPOSAL_ID,\n        INVALID_CHOICE,\n        AFTER_VOTING_PERIOD,\n        BAD_SIGNATURE\n    }\n\n    struct ProposalChallenge {\n        address reporter;\n        uint256 units;\n    }\n\n    uint256 public constant NB_CHOICES = 2;\n\n    SnapshotProposalContract private _snapshotContract;\n    KickBadReporterAdapter private _handleBadReporterAdapter;\n\n    string public constant VOTE_RESULT_NODE_TYPE =\n        \"Message(uint64 timestamp,uint88 nbYes,uint88 nbNo,uint32 index,uint32 choice,bytes32 proposalId)\";\n\n    string public constant ADAPTER_NAME = \"OffchainVotingContract\";\n    string public constant VOTE_RESULT_ROOT_TYPE = \"Message(bytes32 root)\";\n    bytes32 public constant VOTE_RESULT_NODE_TYPEHASH =\n        keccak256(abi.encodePacked(VOTE_RESULT_NODE_TYPE));\n    bytes32 public constant VOTE_RESULT_ROOT_TYPEHASH =\n        keccak256(abi.encodePacked(VOTE_RESULT_ROOT_TYPE));\n\n    bytes32 constant VotingPeriod = keccak256(\"offchainvoting.votingPeriod\");\n    bytes32 constant GracePeriod = keccak256(\"offchainvoting.gracePeriod\");\n    bytes32 constant FallbackThreshold =\n        keccak256(\"offchainvoting.fallbackThreshold\");\n\n    struct VoteStepParams {\n        uint256 previousYes;\n        uint256 previousNo;\n        bytes32 proposalId;\n    }\n\n    struct Voting {\n        uint256 snapshot;\n        address reporter;\n        bytes32 resultRoot;\n        uint256 nbYes;\n        uint256 nbNo;\n        uint256 startingTime;\n        uint256 gracePeriodStartingTime;\n        bool isChallenged;\n        bool forceFailed;\n        mapping(address => bool) fallbackVotes;\n        uint256 fallbackVotesCount;\n    }\n\n    struct VoteResultNode {\n        uint32 choice;\n        uint64 index;\n        uint64 timestamp;\n        uint88 nbNo;\n        uint88 nbYes;\n        bytes sig;\n        bytes32 proposalId;\n        bytes32[] proof;\n    }\n\n    modifier onlyBadReporterAdapter() {\n        require(msg.sender == address(_handleBadReporterAdapter), \"only:hbra\");\n        _;\n    }\n\n    VotingContract public fallbackVoting;\n\n    mapping(address => mapping(bytes32 => ProposalChallenge)) challengeProposals;\n    mapping(address => mapping(bytes32 => Voting)) public votes;\n\n    constructor(\n        VotingContract _c,\n        SnapshotProposalContract _spc,\n        KickBadReporterAdapter _hbra,\n        address _owner\n    ) {\n        require(address(_c) != address(0x0), \"voting contract\");\n        require(address(_spc) != address(0x0), \"snapshot proposal\");\n        require(address(_hbra) != address(0x0), \"handle bad reporter\");\n        fallbackVoting = _c;\n        _snapshotContract = _spc;\n        _handleBadReporterAdapter = _hbra;\n        Ownable(_owner);\n    }\n\n    function adminFailProposal(DaoRegistry dao, bytes32 proposalId)\n        external\n        onlyOwner\n    {\n        Voting storage vote = votes[address(dao)][proposalId];\n        require(vote.startingTime > 0, \"proposal has not started yet\");\n\n        vote.forceFailed = true;\n    }\n\n    function hashResultRoot(\n        DaoRegistry dao,\n        address actionId,\n        bytes32 resultRoot\n    ) public view returns (bytes32) {\n        return\n            keccak256(\n                abi.encodePacked(\n                    \"\\x19\\x01\",\n                    _snapshotContract.DOMAIN_SEPARATOR(dao, actionId),\n                    keccak256(abi.encode(VOTE_RESULT_ROOT_TYPEHASH, resultRoot))\n                )\n            );\n    }\n\n    function getAdapterName() external pure override returns (string memory) {\n        return ADAPTER_NAME;\n    }\n\n    function getChallengeDetails(DaoRegistry dao, bytes32 proposalId)\n        external\n        view\n        returns (uint256, address)\n    {\n        return (\n            challengeProposals[address(dao)][proposalId].units,\n            challengeProposals[address(dao)][proposalId].reporter\n        );\n    }\n\n    function hashVotingResultNode(VoteResultNode memory node)\n        public\n        pure\n        returns (bytes32)\n    {\n        return\n            keccak256(\n                abi.encode(\n                    VOTE_RESULT_NODE_TYPEHASH,\n                    node.timestamp,\n                    node.nbYes,\n                    node.nbNo,\n                    node.index,\n                    node.choice,\n                    node.proposalId\n                )\n            );\n    }\n\n    function nodeHash(\n        DaoRegistry dao,\n        address actionId,\n        VoteResultNode memory node\n    ) public view returns (bytes32) {\n        return\n            keccak256(\n                abi.encodePacked(\n                    \"\\x19\\x01\",\n                    _snapshotContract.DOMAIN_SEPARATOR(dao, actionId),\n                    hashVotingResultNode(node)\n                )\n            );\n    }\n\n    function configureDao(\n        DaoRegistry dao,\n        uint256 votingPeriod,\n        uint256 gracePeriod,\n        uint256 fallbackThreshold\n    ) external onlyAdapter(dao) {\n        dao.setConfiguration(VotingPeriod, votingPeriod);\n        dao.setConfiguration(GracePeriod, gracePeriod);\n        dao.setConfiguration(FallbackThreshold, fallbackThreshold);\n    }\n\n    /** \n        What needs to be checked before submitting a vote result\n        - if the grace period has ended, do nothing\n        - if it's the first result, is this a right time to submit it?\n             * is the diff between nbYes and nbNo +50% of the votes ?\n             * is this after the voting period ?\n        - if we already have a result that has been challenged\n            * same as if there were no result yet\n\n        - if we already have a result that has not been challenged\n            * is the new one heavier than the previous one ?\n         **/\n\n    function submitVoteResult(\n        DaoRegistry dao,\n        bytes32 proposalId,\n        bytes32 resultRoot,\n        VoteResultNode memory result,\n        bytes memory rootSig\n    ) external {\n        Voting storage vote = votes[address(dao)][proposalId];\n        require(vote.snapshot > 0, \"vote:not started\");\n\n        if (vote.resultRoot == bytes32(0) || vote.isChallenged) {\n            require(\n                _readyToSubmitResult(dao, vote, result.nbYes, result.nbNo),\n                \"vote:notReadyToSubmitResult\"\n            );\n        }\n\n        (address adapterAddress, ) = dao.proposals(proposalId);\n        address reporter =\n            ECDSA.recover(\n                hashResultRoot(dao, adapterAddress, resultRoot),\n                rootSig\n            );\n        address memberAddr = dao.getAddressIfDelegated(reporter);\n        require(isActiveMember(dao, memberAddr), \"not active member\");\n        BankExtension bank = BankExtension(dao.getExtensionAddress(BANK));\n        uint256 nbMembers =\n            bank.getPriorAmount(TOTAL, MEMBER_COUNT, vote.snapshot);\n        require(nbMembers - 1 == result.index, \"index:member_count mismatch\");\n        require(\n            getBadNodeError(\n                dao,\n                proposalId,\n                true,\n                resultRoot,\n                vote.snapshot,\n                vote.gracePeriodStartingTime,\n                result\n            ) == BadNodeError.OK,\n            \"bad result\"\n        );\n\n        require(\n            vote.nbYes + vote.nbNo < result.nbYes + result.nbNo,\n            \"result weight too low\"\n        );\n\n        if (\n            vote.gracePeriodStartingTime == 0 ||\n            vote.nbNo > vote.nbYes != result.nbNo > result.nbYes // check whether the new result changes the outcome\n        ) {\n            vote.gracePeriodStartingTime = block.timestamp;\n        }\n\n        vote.nbNo = result.nbNo;\n        vote.nbYes = result.nbYes;\n        vote.resultRoot = resultRoot;\n        vote.reporter = memberAddr;\n        vote.isChallenged = false;\n    }\n\n    function _readyToSubmitResult(\n        DaoRegistry dao,\n        Voting storage vote,\n        uint256 nbYes,\n        uint256 nbNo\n    ) internal view returns (bool) {\n        if (vote.forceFailed) {\n            return false;\n        }\n        BankExtension bank = BankExtension(dao.getExtensionAddress(BANK));\n        uint256 totalWeight = bank.getPriorAmount(TOTAL, UNITS, vote.snapshot);\n        uint256 unvotedWeights = totalWeight - nbYes - nbNo;\n\n        uint256 diff;\n        if (nbYes > nbNo) {\n            diff = nbYes - nbNo;\n        } else {\n            diff = nbNo - nbYes;\n        }\n\n        if (diff > unvotedWeights) {\n            return true;\n        }\n\n        uint256 votingPeriod = dao.getConfiguration(VotingPeriod);\n        return vote.startingTime + votingPeriod <= block.timestamp;\n    }\n\n    function getSenderAddress(\n        DaoRegistry dao,\n        address actionId,\n        bytes memory data,\n        address\n    ) external view override returns (address) {\n        SnapshotProposalContract.ProposalMessage memory proposal =\n            abi.decode(data, (SnapshotProposalContract.ProposalMessage));\n        return\n            ECDSA.recover(\n                _snapshotContract.hashMessage(dao, actionId, proposal),\n                proposal.sig\n            );\n    }\n\n    function startNewVotingForProposal(\n        DaoRegistry dao,\n        bytes32 proposalId,\n        bytes memory data\n    ) public override onlyAdapter(dao) {\n        SnapshotProposalContract.ProposalMessage memory proposal =\n            abi.decode(data, (SnapshotProposalContract.ProposalMessage));\n        (bool success, uint256 blockNumber) =\n            _stringToUint(proposal.payload.snapshot);\n        require(success, \"snapshot conversion error\");\n        BankExtension bank = BankExtension(dao.getExtensionAddress(BANK));\n\n        bytes32 proposalHash =\n            _snapshotContract.hashMessage(dao, msg.sender, proposal);\n        address addr = ECDSA.recover(proposalHash, proposal.sig);\n\n        address memberAddr = dao.getAddressIfDelegated(addr);\n        require(bank.balanceOf(memberAddr, UNITS) > 0, \"noActiveMember\");\n        require(\n            blockNumber <= block.number,\n            \"snapshot block number should not be in the future\"\n        );\n        require(blockNumber > 0, \"block number cannot be 0\");\n\n        votes[address(dao)][proposalId].startingTime = block.timestamp;\n        votes[address(dao)][proposalId].snapshot = blockNumber;\n    }\n\n    function _fallbackVotingActivated(\n        DaoRegistry dao,\n        uint256 fallbackVotesCount\n    ) internal view returns (bool) {\n        return\n            fallbackVotesCount >\n            (dao.getNbMembers() * 100) /\n                dao.getConfiguration(FallbackThreshold);\n    }\n\n    /**\n    possible results here:\n    0: has not started\n    1: tie\n    2: pass\n    3: not pass\n    4: in progress\n     */\n    function voteResult(DaoRegistry dao, bytes32 proposalId)\n        external\n        view\n        override\n        returns (VotingState state)\n    {\n        Voting storage vote = votes[address(dao)][proposalId];\n        if (vote.startingTime == 0) {\n            return VotingState.NOT_STARTED;\n        }\n\n        if (vote.forceFailed) {\n            return VotingState.NOT_PASS;\n        }\n\n        if (_fallbackVotingActivated(dao, vote.fallbackVotesCount)) {\n            return fallbackVoting.voteResult(dao, proposalId);\n        }\n\n        if (vote.isChallenged) {\n            return VotingState.IN_PROGRESS;\n        }\n\n        uint256 votingPeriod = dao.getConfiguration(VotingPeriod);\n\n        //if the vote has started but the voting period has not passed yet, it's in progress\n        if (block.timestamp < vote.startingTime + votingPeriod) {\n            return VotingState.IN_PROGRESS;\n        }\n\n        uint256 gracePeriod = dao.getConfiguration(GracePeriod);\n\n        //if no result have been submitted but we are before grace + voting period, then the proposal is GRACE_PERIOD\n        if (\n            vote.gracePeriodStartingTime == 0 &&\n            block.timestamp < vote.startingTime + gracePeriod + votingPeriod\n        ) {\n            return VotingState.GRACE_PERIOD;\n        }\n\n        //if the vote has started but the voting period has not passed yet, it's in progress\n        if (block.timestamp < vote.gracePeriodStartingTime + gracePeriod) {\n            return VotingState.GRACE_PERIOD;\n        }\n\n        if (vote.nbYes > vote.nbNo) {\n            return VotingState.PASS;\n        }\n        if (vote.nbYes < vote.nbNo) {\n            return VotingState.NOT_PASS;\n        }\n\n        return VotingState.TIE;\n    }\n\n    function challengeBadFirstNode(\n        DaoRegistry dao,\n        bytes32 proposalId,\n        VoteResultNode memory node\n    ) external {\n        require(node.index == 0, \"only first node\");\n        Voting storage vote = votes[address(dao)][proposalId];\n        (address adapterAddress, ) = dao.proposals(proposalId);\n        require(vote.resultRoot != bytes32(0), \"no result available yet!\");\n        bytes32 hashCurrent = nodeHash(dao, adapterAddress, node);\n        //check that the step is indeed part of the result\n        require(\n            MerkleProof.verify(node.proof, vote.resultRoot, hashCurrent),\n            \"proof:bad\"\n        );\n\n        (address actionId, ) = dao.proposals(proposalId);\n\n        if (_checkStep(dao, actionId, node, VoteStepParams(0, 0, proposalId))) {\n            _challengeResult(dao, proposalId);\n        }\n    }\n\n    function challengeBadNode(\n        DaoRegistry dao,\n        bytes32 proposalId,\n        VoteResultNode memory node\n    ) external {\n        Voting storage vote = votes[address(dao)][proposalId];\n        if (\n            getBadNodeError(\n                dao,\n                proposalId,\n                false,\n                vote.resultRoot,\n                vote.snapshot,\n                vote.gracePeriodStartingTime,\n                node\n            ) != BadNodeError.OK\n        ) {\n            _challengeResult(dao, proposalId);\n        }\n    }\n\n    function _isValidChoice(uint256 choice) internal pure returns (bool) {\n        return choice > 0 && choice < NB_CHOICES + 1;\n    }\n\n    function getBadNodeError(\n        DaoRegistry dao,\n        bytes32 proposalId,\n        bool submitNewVote,\n        bytes32 resultRoot,\n        uint256 blockNumber,\n        uint256 gracePeriodStartingTime,\n        VoteResultNode memory node\n    ) public view returns (BadNodeError) {\n        (address adapterAddress, ) = dao.proposals(proposalId);\n        require(resultRoot != bytes32(0), \"no result available yet!\");\n        bytes32 hashCurrent = nodeHash(dao, adapterAddress, node);\n        //check that the step is indeed part of the result\n        require(\n            MerkleProof.verify(node.proof, resultRoot, hashCurrent),\n            \"proof:bad\"\n        );\n        address account = dao.getMemberAddress(node.index);\n        //return 1 if yes, 2 if no and 0 if the vote is incorrect\n        address voter = dao.getPriorDelegateKey(account, blockNumber);\n\n        (address actionId, ) = dao.proposals(proposalId);\n\n        //invalid choice\n        if (\n            (node.sig.length == 0 && node.choice != 0) || // no vote\n            (node.sig.length > 0 && !_isValidChoice(node.choice))\n        ) {\n            return BadNodeError.INVALID_CHOICE;\n        }\n\n        //invalid proposal hash\n        if (node.proposalId != proposalId) {\n            return BadNodeError.WRONG_PROPOSAL_ID;\n        }\n\n        //has voted outside of the voting time\n        if (!submitNewVote && node.timestamp > gracePeriodStartingTime) {\n            return BadNodeError.AFTER_VOTING_PERIOD;\n        }\n\n        //bad signature\n        if (\n            node.sig.length > 0 && // a vote has happened\n            !_hasVoted(\n                dao,\n                actionId,\n                voter,\n                node.timestamp,\n                node.proposalId,\n                node.choice,\n                node.sig\n            )\n        ) {\n            return BadNodeError.BAD_SIGNATURE;\n        }\n\n        return BadNodeError.OK;\n    }\n\n    function challengeBadStep(\n        DaoRegistry dao,\n        bytes32 proposalId,\n        VoteResultNode memory nodePrevious,\n        VoteResultNode memory nodeCurrent\n    ) external {\n        Voting storage vote = votes[address(dao)][proposalId];\n        bytes32 resultRoot = vote.resultRoot;\n\n        (address adapterAddress, ) = dao.proposals(proposalId);\n        require(resultRoot != bytes32(0), \"no result available yet!\");\n        bytes32 hashCurrent = nodeHash(dao, adapterAddress, nodeCurrent);\n        bytes32 hashPrevious = nodeHash(dao, adapterAddress, nodePrevious);\n        require(\n            MerkleProof.verify(nodeCurrent.proof, resultRoot, hashCurrent),\n            \"proof check for current invalid for current node\"\n        );\n        require(\n            MerkleProof.verify(nodePrevious.proof, resultRoot, hashPrevious),\n            \"proof check for previous invalid for previous node\"\n        );\n\n        require(\n            nodeCurrent.index == nodePrevious.index + 1,\n            \"those nodes are not consecutive\"\n        );\n\n        (address actionId, ) = dao.proposals(proposalId);\n        VoteStepParams memory params =\n            VoteStepParams(nodePrevious.nbYes, nodePrevious.nbNo, proposalId);\n        if (_checkStep(dao, actionId, nodeCurrent, params)) {\n            _challengeResult(dao, proposalId);\n        }\n    }\n\n    function requestFallback(DaoRegistry dao, bytes32 proposalId)\n        external\n        onlyMember(dao)\n    {\n        require(\n            votes[address(dao)][proposalId].fallbackVotes[msg.sender] == false,\n            \"the member has already voted for this vote to fallback\"\n        );\n        votes[address(dao)][proposalId].fallbackVotes[msg.sender] = true;\n        votes[address(dao)][proposalId].fallbackVotesCount += 1;\n\n        if (\n            _fallbackVotingActivated(\n                dao,\n                votes[address(dao)][proposalId].fallbackVotesCount\n            )\n        ) {\n            fallbackVoting.startNewVotingForProposal(dao, proposalId, \"\");\n        }\n    }\n\n    function _checkStep(\n        DaoRegistry dao,\n        address actionId,\n        VoteResultNode memory node,\n        VoteStepParams memory params\n    ) internal view returns (bool) {\n        Voting storage vote = votes[address(dao)][params.proposalId];\n        address account = dao.getMemberAddress(node.index);\n        address voter = dao.getPriorDelegateKey(account, vote.snapshot);\n        BankExtension bank = BankExtension(dao.getExtensionAddress(BANK));\n        uint256 weight = bank.getPriorAmount(account, UNITS, vote.snapshot);\n\n        if (node.choice == 0) {\n            if (params.previousYes != node.nbYes) {\n                return true;\n            } else if (params.previousNo != node.nbNo) {\n                return true;\n            }\n        }\n\n        if (\n            _hasVoted(\n                dao,\n                actionId,\n                voter,\n                node.timestamp,\n                node.proposalId,\n                1,\n                node.sig\n            )\n        ) {\n            if (params.previousYes + weight != node.nbYes) {\n                return true;\n            } else if (params.previousNo != node.nbNo) {\n                return true;\n            }\n        }\n        if (\n            _hasVoted(\n                dao,\n                actionId,\n                voter,\n                node.timestamp,\n                node.proposalId,\n                2,\n                node.sig\n            )\n        ) {\n            if (params.previousYes != node.nbYes) {\n                return true;\n            } else if (params.previousNo + weight != node.nbNo) {\n                return true;\n            }\n        }\n\n        return false;\n    }\n\n    function sponsorChallengeProposal(\n        DaoRegistry dao,\n        bytes32 proposalId,\n        address sponsoredBy\n    ) external onlyBadReporterAdapter {\n        dao.sponsorProposal(proposalId, sponsoredBy, address(this));\n    }\n\n    function processChallengeProposal(DaoRegistry dao, bytes32 proposalId)\n        external\n        onlyBadReporterAdapter\n    {\n        dao.processProposal(proposalId);\n    }\n\n    function _challengeResult(DaoRegistry dao, bytes32 proposalId) internal {\n        BankExtension bank = BankExtension(dao.getExtensionAddress(BANK));\n\n        votes[address(dao)][proposalId].isChallenged = true;\n        address challengedReporter = votes[address(dao)][proposalId].reporter;\n        bytes32 challengeProposalId =\n            keccak256(\n                abi.encodePacked(\n                    proposalId,\n                    votes[address(dao)][proposalId].resultRoot\n                )\n            );\n\n        dao.submitProposal(challengeProposalId);\n\n        uint256 units = bank.balanceOf(challengedReporter, UNITS);\n\n        challengeProposals[address(dao)][\n            challengeProposalId\n        ] = ProposalChallenge(challengedReporter, units);\n\n        // Burns / subtracts from member's balance the number of units to burn.\n        bank.subtractFromBalance(challengedReporter, UNITS, units);\n        // Burns / subtracts from member's balance the number of loot to burn.\n        // bank.subtractFromBalance(memberToKick, LOOT, kick.lootToBurn);\n        bank.addToBalance(challengedReporter, LOOT, units);\n    }\n\n    function _hasVoted(\n        DaoRegistry dao,\n        address actionId,\n        address voter,\n        uint64 timestamp,\n        bytes32 proposalId,\n        uint32 choiceIdx,\n        bytes memory sig\n    ) internal view returns (bool) {\n        bytes32 voteHash =\n            _snapshotContract.hashVote(\n                dao,\n                actionId,\n                SnapshotProposalContract.VoteMessage(\n                    timestamp,\n                    SnapshotProposalContract.VotePayload(choiceIdx, proposalId)\n                )\n            );\n\n        return ECDSA.recover(voteHash, sig) == voter;\n    }\n\n    function _stringToUint(string memory s)\n        internal\n        pure\n        returns (bool success, uint256 result)\n    {\n        bytes memory b = bytes(s);\n        result = 0;\n        success = false;\n        for (uint256 i = 0; i < b.length; i++) {\n            if (uint8(b[i]) >= 48 && uint8(b[i]) <= 57) {\n                result = result * 10 + (uint8(b[i]) - 48);\n                success = true;\n            } else {\n                result = 0;\n                success = false;\n                break;\n            }\n        }\n        return (success, result);\n    }\n}\n",
  "sourcePath": "/Users/jd/openlaw/openlawteam/tribute-contracts/contracts/adapters/voting/OffchainVoting.sol",
  "compiler": {
    "name": "solc",
    "version": "0.8.0+commit.c7dfd78e.Emscripten.clang"
  },
  "schemaVersion": "3.3.4",
  "updatedAt": "2021-09-15T21:34:50.497Z",
  "devdoc": {
    "kind": "dev",
    "methods": {
      "owner()": {
        "details": "Returns the address of the current owner."
      },
      "renounceOwnership()": {
        "details": "Leaves the contract without owner. It will not be possible to call `onlyOwner` functions anymore. Can only be called by the current owner. NOTE: Renouncing ownership will leave the contract without an owner, thereby removing any functionality that is only available to the owner."
      },
      "transferOwnership(address)": {
        "details": "Transfers ownership of the contract to a new account (`newOwner`). Can only be called by the current owner."
      }
    },
    "version": 1
  },
  "userdoc": {
    "kind": "user",
    "methods": {
      "isNotReservedAddress(address)": {
        "notice": "Checks if a given address is reserved."
      },
      "isNotZeroAddress(address)": {
        "notice": "Checks if a given address is zeroed."
      },
      "submitVoteResult(address,bytes32,bytes32,(uint32,uint64,uint64,uint88,uint88,bytes,bytes32,bytes32[]),bytes)": {
        "notice": "What needs to be checked before submitting a vote result - if the grace period has ended, do nothing - if it's the first result, is this a right time to submit it? is the diff between nbYes and nbNo +50% of the votes ? is this after the voting period ? - if we already have a result that has been challenged same as if there were no result yet - if we already have a result that has not been challenged is the new one heavier than the previous one ?*"
      },
      "voteResult(address,bytes32)": {
        "notice": "possible results here: 0: has not started 1: tie 2: pass 3: not pass 4: in progress"
      }
    },
    "notice": "MIT License Copyright (c) 2020 Openlaw Permission is hereby granted, free of charge, to any person obtaining a copy of this software and associated documentation files (the \"Software\"), to deal in the Software without restriction, including without limitation the rights to use, copy, modify, merge, publish, distribute, sublicense, and/or sell copies of the Software, and to permit persons to whom the Software is furnished to do so, subject to the following conditions: The above copyright notice and this permission notice shall be included in all copies or substantial portions of the Software. THE SOFTWARE IS PROVIDED \"AS IS\", WITHOUT WARRANTY OF ANY KIND, EXPRESS OR IMPLIED, INCLUDING BUT NOT LIMITED TO THE WARRANTIES OF MERCHANTABILITY, FITNESS FOR A PARTICULAR PURPOSE AND NONINFRINGEMENT. IN NO EVENT SHALL THE AUTHORS OR COPYRIGHT HOLDERS BE LIABLE FOR ANY CLAIM, DAMAGES OR OTHER LIABILITY, WHETHER IN AN ACTION OF CONTRACT, TORT OR OTHERWISE, ARISING FROM, OUT OF OR IN CONNECTION WITH THE SOFTWARE OR THE USE OR OTHER DEALINGS IN THE SOFTWARE.",
    "version": 1
  }
}